:020000040800F2
:1000000000000220916B0008C96A0008CB6A000852
:10001000CD6A0008CF6A0008D16A0008000000001D
:10002000000000000000000000000000C1570008B0
:10003000D36A00080000000061580008C558000895
:10004000E16B0008E16B0008E16B0008E16B000860
:10005000E16B0008E16B0008E16B0008315F00080C
:100060007D600008E16B000889600008D56A00081F
:10007000E16B0008E16B0008E16B0008E16B000830
:10008000E16B0008E16B0008E16B00080000000074
:10009000000000000000000000000000E16B00080C
:1000A000E16B0008E16B0008E56A0008E16B0008FD
:1000B000E16B0008E16B0008E16B0008F56A0008DD
:1000C000056B0008E16B0008E16B0008156B000888
:1000D000E16B0008E16B0008E16B00080000000024
:1000E000E16B0008E16B0008E16B00080000000014
:1000F000000000000000000000000000E16B0008AC
:1001000000000000E16B0008E16B0008E16B0008F3
:1001100000000000000000000000000000000000DF
:10012000256B0008E16B0008E16B0008E16B00083B
:10013000E16B00080000000000000000000000006B
:10014000000000000000000000000000356B000807
:10015000E16B0008E16B0008E16B0008E16B00084F
:10016000E16B0008E16B00080000000000000000E7
:10017000000000000000000000000000000000007F
:1001800000000000E16B000800000000000000001B
:08019000E16B0008E16B0008BF
:1001A00010B5054C237833B9044B13B10448AFF3B1
:1001B00000800123237010BD10000020000000000B
:1001C0003C6C000808B5034B1BB103490348AFF36F
:1001D000008008BD00000000140000203C6C0008F6
:1001E00081F0004102E000BF83F0004330B54FEAE8
:1001F00041044FEA430594EA050F08BF90EA020F55
:100200001FBF54EA000C55EA020C7FEA645C7FEAE7
:10021000655C00F0E2804FEA5454D4EB5555B8BF0A
:100220006D420CDD2C4480EA020281EA030382EA7B
:10023000000083EA010180EA020281EA0303362D0D
:1002400088BF30BD11F0004F4FEA01314FF4801CE0
:100250004CEA113102D0404261EB410113F0004FF2
:100260004FEA03334CEA133302D0524263EB4303A9
:1002700094EA050F00F0A780A4F10104D5F1200E47
:100280000DDB02FA0EFC22FA05F2801841F10001A2
:1002900003FA0EF2801843FA05F359410EE0A5F176
:1002A00020050EF1200E012A03FA0EFC28BF4CF0A7
:1002B000020C43FA05F3C01851EBE37101F000455D
:1002C00007D54FF0000EDCF1000C7EEB00006EEB6A
:1002D0000101B1F5801F1BD3B1F5001F0CD34908F4
:1002E0005FEA30004FEA3C0C04F101044FEA44524B
:1002F00012F5800F80F09A80BCF1004F08BF5FEAD2
:10030000500C50F1000041EB045141EA050130BDB1
:100310005FEA4C0C404141EB010111F4801FA4F154
:100320000104E9D191F0000F04BF01460020B1FAA9
:1003300081F308BF2033A3F10B03B3F120020CDAE1
:100340000C3208DD02F1140CC2F10C0201FA0CF0BF
:1003500021FA02F10CE002F11402D8BFC2F1200C24
:1003600001FA02F120FA0CFCDCBF41EA0C019040DA
:10037000E41AA2BF01EB0451294330BD6FEA040423
:100380001F3C1CDA0C340EDC04F11404C4F120020E
:1003900020FA04F001FA02F340EA030021FA04F320
:1003A00045EA030130BDC4F10C04C4F1200220FA77
:1003B00002F001FA04F340EA0300294630BD21FAB5
:1003C00004F0294630BD94F0000F83F4801306BF7B
:1003D00081F480110134013D4EE77FEA645C18BF6F
:1003E0007FEA655C29D094EA050F08BF90EA020F06
:1003F00005D054EA000C04BF1946104630BD91EAFE
:10040000030F1EBF0021002030BD5FEA545C05D100
:100410004000494128BF41F0004130BD14F580043F
:100420003CBF01F5801130BD01F0004545F0FE41B3
:1004300041F470014FF0000030BD7FEA645C1ABFE8
:10044000194610467FEA655C1CBF0B46024650EA1F
:10045000013406BF52EA033591EA030F41F400214B
:1004600030BD00BF90F0000F04BF0021704730B5D1
:100470004FF4806404F132044FF000054FF00001A6
:1004800050E700BF90F0000F04BF0021704730B567
:100490004FF4806404F1320410F0004548BF40423C
:1004A0004FF000013EE700BF42004FEAE2014FEA91
:1004B00031014FEA02701FBF12F07F4393F07F4F6C
:1004C00081F06051704732F07F4208BF704793F06F
:1004D0007F4F04BF41F40021704730B54FF4607482
:1004E00001F0004521F000411CE700BF50EA010285
:1004F00008BF704730B54FF000050AE050EA01022E
:1005000008BF704730B511F0004502D5404261EB9D
:1005100041014FF4806404F132045FEA915C3FF4DE
:10052000D8AE4FF003025FEADC0C18BF03325FEA7B
:10053000DC0C18BF033202EBDC02C2F1200300FA2C
:1005400003FC20FA02F001FA03FE40EA0E0021FA51
:1005500002F11444BDE600BF70B54FF0FF0C4CF43F
:10056000E06C1CEA11541DBF1CEA135594EA0C0FF1
:1005700095EA0C0F00F0DEF82C4481EA030621EA2C
:100580004C5123EA4C5350EA013518BF52EA033567
:1005900041F4801143F4801338D0A0FB02CE4FF019
:1005A0000005E1FB02E506F00042E0FB03E54FF049
:1005B0000006E1FB03569CF0000F18BF4EF0010E41
:1005C000A4F1FF04B6F5007F64F5407404D25FEA3D
:1005D0004E0E6D4146EB060642EAC62141EA5551F0
:1005E0004FEAC52040EA5E504FEACE2EB4F1FD0C32
:1005F00088BFBCF5E06F1ED8BEF1004F08BF5FEAB0
:10060000500E50F1000041EB045170BD06F0004661
:1006100046EA010140EA020081EA0301B4EB5C040E
:10062000C2BFD4EB0C0541EA045170BD41F4801106
:100630004FF0000E013C00F3AB8014F1360FDEBF2B
:10064000002001F0004170BDC4F10004203C35DA07
:100650000C341BDC04F11404C4F1200500FA05F38A
:1006600020FA04F001FA05F240EA020001F000422B
:1006700021F0004110EBD37021FA04F642EB0601A1
:100680005EEA430E08BF20EAD37070BDC4F10C04CB
:10069000C4F1200500FA04F320FA05F001FA04F28F
:1006A00040EA020001F0004110EBD37041F100017B
:1006B0005EEA430E08BF20EAD37070BDC4F1200586
:1006C00000FA05F24EEA020E20FA04F301FA05F2EE
:1006D00043EA020321FA04F001F0004121FA04F296
:1006E00020EA020000EBD3705EEA430E08BF20EA66
:1006F000D37070BD94F0000F0FD101F000464000A0
:1007000041EB010111F4801F08BF013CF7D041EA21
:10071000060195F0000F18BF704703F00046520025
:1007200043EB030313F4801F08BF013DF7D043EAF6
:100730000603704794EA0C0F0CEA135518BF95EAAC
:100740000C0F0CD050EA410618BF52EA4306D1D133
:1007500081EA030101F000414FF0000070BD50EA52
:10076000410606BF1046194652EA430619D094EADC
:100770000C0F02D150EA013613D195EA0C0F05D1C6
:1007800052EA03361CBF104619460AD181EA03011A
:1007900001F0004141F0FE4141F470014FF00000D2
:1007A00070BD41F0FE4141F4780170BD70B54FF06D
:1007B000FF0C4CF4E06C1CEA11541DBF1CEA1355ED
:1007C00094EA0C0F95EA0C0F00F0A7F8A4EB0504CF
:1007D00081EA030E52EA03354FEA013100F08880C6
:1007E0004FEA03334FF0805545EA131343EA12638F
:1007F0004FEA022245EA111545EA10654FEA002644
:100800000EF000419D4208BF964244F1FD0404F5FC
:10081000407402D25B084FEA3202B61A65EB030558
:100820005B084FEA32024FF480104FF4002CB6EB15
:10083000020E75EB030E22BFB61A754640EA0C0095
:100840005B084FEA3202B6EB020E75EB030E22BFD5
:10085000B61A754640EA5C005B084FEA3202B6EB16
:10086000020E75EB030E22BFB61A754640EA9C00D5
:100870005B084FEA3202B6EB020E75EB030E22BFA5
:10088000B61A754640EADC0055EA060E18D04FEA63
:10089000051545EA16754FEA06164FEAC30343EA03
:1008A00052734FEAC2025FEA1C1CC0D111F4801FD0
:1008B0000BD141EA00014FF000004FF0004CB6E7C9
:1008C00011F4801F04BF01430020B4F1FD0C88BF68
:1008D000BCF5E06F3FF6AFAEB5EB030C04BFB6EB73
:1008E000020C5FEA500C50F1000041EB045170BD66
:1008F0000EF0004E4EEA113114EB5C04C2BFD4EB93
:100900000C0541EA045170BD41F480114FF0000E16
:10091000013C90E645EA060E8DE60CEA135594EA92
:100920000C0F08BF95EA0C0F3FF43BAF94EA0C0F95
:100930000AD150EA01347FF434AF95EA0C0F7FF40A
:1009400025AF104619462CE795EA0C0F06D152EA5E
:1009500003353FF4FDAE1046194622E750EA410642
:1009600018BF52EA43067FF4C5AE50EA41047FF453
:100970000DAF52EA43057FF4EBAE12E74FEA4102B6
:10098000B2F1E04324BFB3F5001CDCF1FE5C0DD9ED
:1009900001F0004C4FEAC0024CEA5070B2F1004F37
:1009A00040EB830008BF20F00100704711F0804F3A
:1009B00021D113F13872BCBF01F00040704741F4FF
:1009C00080114FEA5252C2F11802C2F1200C10FA03
:1009D0000CF320FA02F018BF40F001004FEAC123E7
:1009E0004FEAD32303FA0CFC40EA0C0023FA02F38B
:1009F0004FEA4303CCE77FEA625307D150EA013361
:100A00001EBF4FF0FE4040F44000704701F0004030
:100A100040F0FE4040F40000704700BF53B94AB9AF
:100A2000002908BF00281CBF4FF0FF314FF0FF30F6
:100A300000F072B9ADF1080C6DE904CE00F006F8D3
:100A4000DDF804E0DDE9022304B070472DE9F0474A
:100A5000089E04468846002B4BD18A42154667D92A
:100A6000B2FA82F24AB1C2F1200701FA02F320FA87
:100A700007F7954047EA030894404FEA154E230CC8
:100A8000B8FBFEF71FFA85FC0EFB178843EA084304
:100A900007FB0CF1994209D9EB1807F1FF3080F000
:100AA0001B81994240F21881023F2B445B1AA4B289
:100AB000B3FBFEF00EFB103344EA034400FB0CFCD6
:100AC000A44509D92C1900F1FF3380F00781A44512
:100AD00040F2048102382C4440EA0740A4EB0C04A5
:100AE00000271EB1D4400023C6E900433946BDE8C3
:100AF000F0878B4209D9002E00F0EB800027C6E971
:100B0000000138463946BDE8F087B3FA83F7002F75
:100B100047D18B4202D3824200F2FA80841A61EB01
:100B2000030301209846002EE0D0C6E90048DDE727
:100B300002B9FFDEB2FA82F2002A40F08F80491B30
:100B40004FEA154E1FFA85F80127B1FBFEFC230C76
:100B50000EFB1C1143EA014308FB0CF1994207D933
:100B6000EB180CF1FF3002D2994200F2CD8084469E
:100B7000591AA3B2B1FBFEF00EFB101443EA044471
:100B800008FB00F8A04507D92C1900F1FF3302D269
:100B9000A04500F2B6801846A4EB080440EA0C40D9
:100BA0009FE7C7F1200CBB4022FA0CFE4EEA030E71
:100BB00001FA07F420FA0CF521FA0CF34FEA1E486B
:100BC0002543B3FBF8F92C0C08FB19331FFA8EFAF6
:100BD00044EA034309FB0AF49C4202FA07F200FAD2
:100BE00007F10BD91EEB030309F1FF3080F087807A
:100BF0009C4240F28480A9F1020973441B1BADB2F0
:100C0000B3FBF8F008FB103345EA034400FB0AFA93
:100C1000A24508D91EEB040400F1FF336BD2A245B4
:100C200069D90238744440EA0940A0FB0289A4EB68
:100C30000A044C45C2464B4654D351D0002E69D0CD
:100C4000B1EB0A0564EB030404FA0CFCFD40FC4024
:100C50004CEA0505C6E90054002747E7C2F1200326
:100C600020FA03F7954001FA02F021FA03F34FEA64
:100C7000154E3843010CB3FBFEF71FFA85F80EFB47
:100C8000173341EA034107FB08F38B4204FA02F4ED
:100C900007D9691807F1FF3C2FD28B422DD9023FAB
:100CA0002944CB1A81B2B3FBFEF00EFB103341EAAC
:100CB000034100FB08F38B4207D9691800F1FF3CA0
:100CC00017D28B4215D902382944C91A40EA07477E
:100CD0003BE73746304609E70746E7E61846FBE6B6
:100CE0004145ABD2B8EB020A69EB0E02013813465C
:100CF000A4E76046E9E7184695E76746D1E78146ED
:100D00007CE702382C4447E7ACF1020C2B442FE778
:100D1000384608E73746E9E6704700BF08B50B4B91
:100D20001A6842F400721A601A6842F480621A600B
:100D30001A6842F480721A60032000F02FF8002035
:100D400005F086FE05F0B8FC002008BD003C02401E
:100D5000034A1168034B1B780B441360704700BFB4
:100D6000783D002000000020014B1868704700BF4C
:100D7000783D002038B50446FFF7F6FF0546B4F18C
:100D8000FF3F02D0044B1B781C44FFF7EDFF401BD4
:100D9000A042FAD338BD00BF00000020074AD36844
:100DA00023F4E0631B041B0C000200F4E060184312
:100DB00040F0BF6040F40030D060704700ED00E0CC
:100DC00030B4174BDB68C3F30223C3F10704042CD0
:100DD00028BF04241D1D062D18D9033B4FF0FF35F5
:100DE00005FA04F421EA0401994005FA03F322EA22
:100DF0000303194300280BDB0901C9B200F160406D
:100E000000F5614080F8001330BC70470023E5E72F
:100E100000F00F000901C9B2024B1954F4E700BFFA
:100E200000ED00E014ED00E000F01F024009012396
:100E30009340024A42F82030704700BF00E100E0D2
:100E40000268D3B2103B0B49A1FB03131B090A49EB
:100E5000C95CC165032B06D822F47F7222F003021D
:100E60008265806D704722F47F7222F003020432A3
:100E70008265F6E7ABAAAAAA546C0008836A826965
:100E800092B9012B0AD01BB1022B01D00020704770
:100E9000C36A13F0807F2CD100207047C36AB3F17E
:100EA000C07F28D000207047B2F5005F05D0022B2C
:100EB00029D9032B15D000207047032B03D8DFE876
:100EC00003F01C041C0A00207047C36A13F0807FE3
:100ED00015D100207047C36AB3F1C07F11D0002044
:100EE0007047C36A13F0807F01D001207047002053
:100EF0007047012070470120704701207047012092
:100F000070470120704701207047000070B504460B
:100F1000FFF72AFF002C5BD00546002384F834300D
:100F2000022384F835302268136823F0010313602C
:100F300023681A6812F0010F0AD0FFF715FF401B53
:100F40000528F5D920236365032084F8350070BD9A
:100F50001A68204810406168A2680A43E1680A43A1
:100F600021690A4361690A43A1690A43E1690A43A5
:100F7000216A0A430243616A04291ED01A60266866
:100F8000756925F00705636A1D43042B07D1A36A21
:100F90001D43E36A1BB12046FFF770FF90B97561EE
:100FA0002046FFF74DFFE26D3F2393408360002012
:100FB0006065012384F83530C9E7E16A206B01439D
:100FC0000A43DBE740236365012084F83500BEE770
:100FD0000120BCE73F8010F090F83530DBB2022BE7
:100FE00003D08023436501207047052380F8353006
:100FF0000268136823F001031360002070470000AB
:10100000F0B583B0044600230193724B1D68724B08
:10101000A3FB0535AD0A876D3E68C26D082393407A
:10102000334210D003681A6812F0040F0BD01A680C
:1010300022F004021A60C26D08239340BB60436D26
:1010400043F001034365E26D01239340334209D02D
:101050002268526912F0800F04D0BB60636D43F0C8
:1010600002036365E26D04239340334209D0226892
:10107000126812F0020F04D0BB60636D43F00403EA
:101080006365E26D10239340334224D022681268D6
:1010900012F0080F1FD0BB6023681A6812F4802F6B
:1010A0000DD01B6813F4002F04D1236C9BB1204694
:1010B000984710E0A36C73B1204698470BE01A687C
:1010C00012F4807F03D11A6822F008021A60236CA0
:1010D0000BB120469847E26D20239340334255D010
:1010E0002268126812F0100F50D0BB6094F83530AF
:1010F000DBB2052B0ED023681A6812F4802F33D090
:101100001B6813F4002F2AD1636C002B3ED02046BD
:1011100098473BE02268136823F0160313602268A7
:10112000536923F080035361236CA3B122681368D1
:1011300023F008031360E26D3F239340BB6000235C
:1011400084F83430012384F83530236D002B3FD0F0
:10115000204698473CE0A36C002BE7D1EBE7E36B1C
:10116000A3B12046984711E01A6812F4807F09D194
:101170001A6822F010021A60002384F83430012328
:1011800084F83530E36B0BB120469847636DFBB1B3
:10119000636D13F0010F17D0052384F835302268F2
:1011A000136823F001031360019B01330193AB42E9
:1011B00004D823681B6813F0010FF5D1002384F8CD
:1011C0003430012384F83530E36C0BB12046984766
:1011D00003B0F0BD0C000020B5814E1B00230F2B87
:1011E00000F2C580F0B482B039E0042200E00022B1
:1011F000B2403A4302345E4E46F824205D4A1468F9
:10120000EA4302EA04064F6817F4803F01D045EA3A
:101210000406584C2660646802EA04064F6817F416
:10122000003F01D045EA0406524C6660A46802EA19
:1012300004064F6817F4801F01D045EA04064D4CA0
:10124000A660E46822404E6816F4001F01D045EA0B
:101250000402484CE26001330F2B00F2858001222A
:101260009A400C6804EA0205AA42F4D14C68022CA8
:1012700001D0122C10D1DE08083650F826C003F039
:101280000704A7000F24BC402CEA040C0C69BC40E6
:1012900044EA0C0440F8264004685F000326BE4080
:1012A000F64306EA040C4C6804F00304BC4044EA2C
:1012B0000C0404604C6804F1FF3CBCF1010F03D93D
:1012C000112C01D0122C10D1846806EA040CCC68D1
:1012D000BC4044EA0C048460446824EA02024C687E
:1012E000C4F300149C4014434460C26816408A68EA
:1012F000BA403243C2604A6812F0805FABD000222D
:1013000001921D4A546C44F480445464526C02F4BB
:1013100080420192019A9C08A61C154A52F8267038
:1013200003F0030296000F22B24027EA0207134A95
:1013300090423FF45CAF02F5806290420ED002F51D
:10134000806290420CD002F5806290420AD002F591
:10135000806290423FF449AF072249E7012247E704
:10136000022245E7032243E702B0F0BC7047704712
:1013700000380140003C01400038024000000240BB
:1013800012B909048161704781617047F8B5066838
:10139000346A04F00F07C4F34343C4F30A14022B66
:1013A0002ED16CB307EB8702D3000344596C39B3D9
:1013B00005462246304603F01FFCBA003A44D300EB
:1013C0002B445A6C22445A64DA6C2244DA6406EBE9
:1013D0004713D3F810150B4A0A408AB1D3F80025F9
:1013E00022F0804242F00042C3F80025BB00D91928
:1013F000CA002A4492F8503083F0010382F850303A
:10140000F8BD00BF0000F81F002837D0F0B58BB042
:101410000646032380F8913205F0CCFA306803F0D9
:10142000A8FB344654F810CB6D460FCC0FC50FCC3B
:101430000FC594E8030085E80300371D97E80E0008
:10144000604603F058FB0121306803F098FB3446F6
:1014500054F810CB6D460FCC0FC50FCC0FC594E8D8
:10146000030085E8030097E80E00604603F0FEFBEA
:10147000012386F8913200200BB0F0BD01207047A7
:101480007047704730B583B005460468D4F84034DF
:101490000193D4F840340093009B23F02E03009373
:1014A000019B13F0020F07D0019B13F0010F25D110
:1014B000009B43F002030093019B13F0080F10D030
:1014C000009B43F008030093019B13F0040F31D0FD
:1014D000AB69022B19D0EB68032B26D02846FFF707
:1014E000D0FF019B13F0200F03D0009B43F020039B
:1014F0000093009BC4F8403403B030BDA36923F0CF
:101500000053A361FFF7BDFFD2E7019B03F4C023A3
:10151000B3F5802F04D00121286803F01DFCDDE71E
:101520000221286803F018FCD8E74EF66022C4F8C0
:101530000424D3E7D4F8403423F02E03C4F8403415
:101540002A68936943F000539361CAE77047704774
:10155000F8B506460D46076807EB411707F5A06486
:10156000A36813F0040F41D00423A360E36843F0A1
:101570000203E360A36813F4007F6DD1A36813F046
:10158000010F00F08A80336963B1AB005919CA00BA
:101590003244916C2269C2F31202891A2B44DA0098
:1015A0003244D164AA002A44D3003344012283F890
:1015B0005D2000219965A26093F83F30002B57D041
:1015C000022B55D0032B5DD1D7F8003543F00053E3
:1015D000C7F8003505EB8502D3003344012283F8B8
:1015E0005C2029463046FFF7B2FF4BE0A36813F0BA
:1015F000200F02D02023A360BCE7A36813F0080FDC
:1016000017D1A36813F4806FB4D0E36843F00203EA
:10161000E360006803F0F0FB1023A36005EB850294
:10162000D3003344082283F85D204FF48063A36025
:10163000A0E7E36843F00203E36001EB8102D3001B
:101640000344052283F85D201023A3600823A360D0
:10165000006803F0D1FB8DE7E36843F00203E36029
:101660002946306803F0C8FB4FF40073A36013E011
:10167000E36843F00203E3602946306803F0BCFBF3
:101680001023A360AB005919CA00324492F85030BD
:1016900083F0010382F85030F8BDA36813F0020F05
:1016A00050D0E36823F00203E36005EB8502D3002A
:1016B000334493F85D30012B20D0052B32D0062B1C
:1016C00001D0082B21D1AA002A44D30033449A6DBB
:1016D000511C9965032A2DD9AA002A44D30033440A
:1016E00000229A65042283F85C20D7F8003523F0A5
:1016F000804343F00043C7F8003506E005EB850260
:10170000D3003344012283F85C200223A36005EB5D
:101710008502D300334493F85C2029463046FFF716
:1017200016FFB9E705EB8502D3003344052283F8A1
:101730005C20EAE705EB8502D3003344022283F8FC
:101740005C20D2E7A36813F0800F26D1A36813F0C2
:10175000100FA1D005EB8502D300334493F83F303E
:10176000032B32D0AB005919CA003244032182F84E
:101770005D101022A2601D4405FA01F31E4496F884
:101780003F300BB1022B87D1D7F8003523F08043CF
:1017900043F00043C7F800357EE7E36843F00203F7
:1017A000E360AB005919CA003244916D0131916573
:1017B0002B44DA003244062382F85D302946306833
:1017C00003F01AFB8023A36066E7E36843F002039B
:1017D000E3602946306803F00FFBC3E7F8B50468FF
:1017E00004EB411404F5A064A36813F0040F24D1A2
:1017F0000E460546A36813F0200F25D02023A360D2
:1018000001EB8102D300034493F83D30012B1AD140
:101810008F007A18D3000344042283F85D20E36824
:1018200043F00203E360006803F0E6FAB919C80068
:101830002844022380F85C3005E00423A360E368B9
:1018400043F00203E360F8BDA36813F0400F4CD1EE
:10185000A36813F4007F5FD1A36813F0010F66D172
:10186000A36813F0080F77D1A36813F0100F40F0AE
:101870008480A36813F0800F40F09580A36813F470
:10188000806F40F0A180A36813F0020FDBD0E36803
:1018900023F00203E36001EB8102D300034493F8D9
:1018A0005D30012B00F0A480032B00F0C480042BDA
:1018B00000F0C980052B00F0D180062B02D0082B48
:1018C00040F0A180B2003244D3002B449A6D511CE9
:1018D0009965032A40F2CA80282303FB065300229D
:1018E0009A65042283F85C208DE08B005918CA00A9
:1018F0000244042182F85D103344DA0002440023DC
:101900009365E36843F00203E3603146006803F047
:1019100073FA4023A36096E7E36843F00203E360B1
:10192000006803F069FA4FF40073A3608BE78F003F
:101930007A18D300034400229A65E36843F0020357
:10194000E360006803F058FA0123A360B919C800E6
:10195000284480F85D3076E70823A360E36843F00D
:101960000203E360006803F047FA06EB8601C80053
:101970002844052380F85D3065E78F007A18D3008E
:10198000034400229A65E36843F00203E3600068C1
:1019900003F032FAB919C8002844032380F85D30F7
:1019A0001023A3604FE7E36843F00203E36000689D
:1019B00003F022FA06EB8601CB002B44062283F8C3
:1019C0005D208023A3603EE7E36843F00203E36009
:1019D000006803F011FA1023A3604FF48063A36042
:1019E00006EB8601CB002B44082283F85D202AE712
:1019F0008A000A44D3000344012283F85C2093F850
:101A00003F30022B0CD00223A36006EB8602D300EA
:101A10002B4493F85C2031462846FFF798FD12E7E7
:101A20008A000A44D300034493F8512082F0010253
:101A300083F85120E7E701EB8102D300034402223F
:101A400083F85C20DFE78A000A44D30003440222C3
:101A500083F85C20002283F83D20D4E701EB81026B
:101A6000D3000344052283F85C20CCE7282303FB42
:101A70000653022283F85C20C5E7F8B504460568E2
:101A8000284603F0D1F8012800D0F8BD206803F003
:101A9000C7F80028F9D0206803F0C2F810F4001F3E
:101AA00003D023684FF400125A61206803F0B8F89D
:101AB00010F4801F03D023684FF480125A6120680D
:101AC00003F0AEF810F0806F03D023684FF080620F
:101AD0005A61206803F0A4F810F0020F02D02368C6
:101AE00002225A61206803F09BF810F0005F25D1B4
:101AF000206803F095F810F0807F31D1206803F062
:101B00008FF810F0080F2FD1206803F089F810F03B
:101B1000007F30D1206803F083F810F0100FB4D0AC
:101B20002268936923F0100393612046FFF72EFC8F
:101B30002268936943F010039361A6E7D5F8403417
:101B400023F02E03C5F840342046FFF7FFFC0121A7
:101B5000206803F001F923684FF000525A61C7E78B
:101B60002046FFF78FFCC9E72046FFF789FC236872
:101B700008225A61C8E7206803F02FF907460026BB
:101B800004E0F1B22046FFF729FE0136A368B34214
:101B90000FD90123B3403B42F7D005EB4613D3F8EE
:101BA000003513F4004FECD0F1B22046FFF7D0FC23
:101BB000EBE723684FF000725A61ABE790F83E30D4
:101BC000DBB2402B13D00369B3F5804F1ED0036DF9
:101BD000002B2DD0036D012B33D1436CC3F3C813FD
:101BE000026803F0060343F0F103136129E0036D7B
:101BF0002BB9436C026803F0FE03136121E0436CD0
:101C0000026843F00103DBB213611AE090F83D3043
:101C1000DBB2212B06D0436C026843F00103DBB238
:101C200013610EE0436C026803F0FE03136108E0E9
:101C3000436CC3F3C813026803F0060343F0F003D8
:101C4000136100207047436C0268DBB2136100200F
:101C5000704710B48BB090F83E30DAB2C16A046BB2
:101C600090F83D30DBB2222B0CD00023099303689F
:101C70005A6909929B690993099B00200BB05DF892
:101C8000044B7047036D0BB9402A17D0036D1BB985
:101C90000369B3F5404F19D0438D9BB2002B25D17A
:101CA000029303685A6902929A690292029A1A6828
:101CB00042F400721A6000230365DEE700930368B4
:101CC0005A6900929B690093009BD6E70023019319
:101CD00003685A6901929A690192019A1A6842F45A
:101CE00080721A60036D01330365C6E7438D9BB2B2
:101CF000012B1AD0438D9BB2022B6BD00268136864
:101D000043F48063136003685A6812F4006F03D0D1
:101D10005A6842F480525A600023089303685A6953
:101D200008929B690893089BC5E711F5803F16D080
:101D300004293DD008293BD0122C39D0C36A022B8C
:101D400030D00268136823F4806313600023059386
:101D500003685A6905929B690593059BABE7026886
:101D6000136823F48063136003685A6812F4006FE9
:101D70000CD01A6822F480621A600023039303686F
:101D80005A6903929B690393039B94E70022049290
:101D90005A6904929A690492049A1A6842F4007289
:101DA0001A6088E70268136843F480631360CDE724
:101DB0000268136823F480631360002306930368AA
:101DC0005A6906929A690692069A1A6842F4007253
:101DD0001A6070E7C36A022B1BD00268136823F4F1
:101DE000806313600268136843F400631360036840
:101DF0005A6812F4006F03D05A6842F480525A6055
:101E00000023079303685A6907929B690793079B0E
:101E100051E70268136843F480631360E7E7438D7A
:101E20009BB24BB1436A5A1C426202681B78136131
:101E3000438D013B9BB2438500207047438D9BB28D
:101E40004BB103681A69436A591C41621A70438D89
:101E5000013B9BB243850020704703685A6912F426
:101E6000806F0DD06FF480625A61042303640023F5
:101E70000363202280F83D2080F83C300120704729
:101E800000207047F8B506460C4617461D461EE072
:101E90002DB1FEF769FF069BC01AA84217D900238F
:101EA0003363202286F83D2086F83E3086F83C30A9
:101EB00003201AE033685B6924EA03039BB2B3FA98
:101EC00083F35B099F420FD1B5F1FF3FE0D1C4F32B
:101ED0000743012BEED033689B6924EA03039BB2CE
:101EE000B3FA83F35B09EDE70020F8BDF8B50446CB
:101EF0000D4616461F4632E01A6842F400721A6018
:101F000023686FF480625A610423236400232363EF
:101F1000202284F83D2084F83C3001202DE026B1B9
:101F2000FEF722FFC01BB04219D9002323632022F1
:101F300084F83D2084F83C3003201EE023685B6970
:101F400025EA03039BB2003318BF0123A3B1236822
:101F50005A6912F4806FCFD1B6F1FF3FDFD1C5F3DC
:101F60000743012BEAD023689B6925EA03039BB250
:101F7000003318BF0123E9E70020F8BDF0B583B0B6
:101F800004460D4616461F46C36A042B0DD0012B8E
:101F90000BD013F5803F08D0036B122B0AD10268D7
:101FA000136843F48073136004E02268136843F4F9
:101FB000807313600097334600224FF001112046D2
:101FC000FFF760FF58BB2369B3F5804F10D123683A
:101FD00005F0FE051D613B46324615492046FFF7D8
:101FE00085FF0346E0B1236C042B1ED1012317E0CB
:101FF000EB11226803F0060343F0F00313613B4644
:1020000032460C492046FFF771FF20B1236C042BA8
:1020100009D1012304E02368EDB21D61DBE703234E
:10202000184603B0F0BD0323FAE70323F8E700BF27
:1020300002000100080001002DE9F04184B00446CF
:102040000D4616461F46C26A01680B6843F480635A
:102050000B60042A0DD0012A0BD012F5803F08D066
:10206000036B112B0AD10268136843F48073136069
:1020700004E02268136843F48073136000973346CA
:1020800000224FF001112046FFF7FCFE002852D13C
:102090002369B3F5804F12D1236845F00105EDB2F5
:1020A0001D613B4632462A492046FFF71FFF034683
:1020B000002841D0236C042B48D101233CE04FEA97
:1020C000E51808F00608236848F0F0021A613B465C
:1020D000324620492046FFF709FF20B1236C042B2C
:1020E0002ED1012328E02368EDB21D613B46324624
:1020F00017492046FFF7FAFE20B1236C042B21D1AB
:10210000012319E000220392236859690391996918
:1021100003910399196841F480711960009733465F
:102120004FF001112046FFF7ADFE68B9226848F074
:10213000F1031361B5E70323184604B0BDE8F0814D
:102140000323F9E70323F7E70323F5E70323F3E783
:10215000020001000800010070B504460D46164655
:1021600023685B6913F0800F19D12046FFF775FED5
:10217000B8B9B5F1FF3FF3D025B1FEF7F5FD801BEF
:10218000A842EDD9236C43F020032364002323638A
:10219000202284F83D2084F83C30032000E0002019
:1021A00070BD0120FCE770B504460D461646236855
:1021B0005B6913F0040F19D12046FFF74EFEB8B942
:1021C000B5F1FF3FF3D025B1FEF7CEFD801BA8424D
:1021D000EDD9236C43F020032364002323632022E2
:1021E00084F83D2084F83C30032000E0002070BDDE
:1021F0000120FCE770B505460C4616462B685A6967
:1022000012F0400F22D15A6912F0100F11D124B1EF
:10221000FEF7AAFD801BA042F0D92B6C43F02003EF
:102220002B64202385F83D30002385F83C300320C3
:1022300070BD6FF010025A6100232B642B632022C3
:1022400085F83D2085F83C300120F1E70020EFE7DC
:10225000002800F0828010B5044690F83D30002B35
:1022600041D0242384F83D302268136823F0010311
:10227000136001F00BFE3A4BA3FB00239B0C22687A
:1022800053606168374A914232D801332268136241
:102290006368344A934235D85B00B0FBF3F0C0F377
:1022A0000B03032B00D804202368D861E369216A5B
:1022B00022680B4313602369E16822680B43936033
:1022C0006369A16922680B43D3602268136843F0F5
:1022D0000103136000202064202384F83D30206334
:1022E00084F83E0010BD80F83C3004F007FAB8E7EF
:1022F0004FF4967202FB03F31B4AA2FB03239B09D4
:102300000133C3E7A16889B903EB4302B0FBF2F2E2
:10231000C2F30B02B2FA82F25209E2B991B903EBAD
:102320004303B0FBF3F040F40040BDE703EB83024E
:1023300002EB8202B0FBF2F2C2F30B02B2FA82F2BB
:102340005209EAE703EB830303EB8303B0FBF3F0EB
:1023500040F44040A8E70120A6E70120704700BFF5
:1023600083DE1B43A0860100D34D62102DE9F041AE
:1023700084B004460E4690461F46FEF7F5FC94F8DE
:102380003D30DBB2202B04D00226304604B0BDE83D
:10239000F081054600901923012254492046FFF799
:1023A00071FD002840F0998094F83C30012B00F03A
:1023B0009680012384F83C3023681A6812F0010FDC
:1023C00003D11A6842F001021A602268136823F4EC
:1023D00000631360212384F83D30102384F83E30DD
:1023E00000232364C4F824806785A3F58033E36267
:1023F000638D23852B460A9A31462046FFF7BEFDA2
:10240000064660B1236C042B04D1002384F83C30D1
:102410000126BAE7002384F83C300326B5E7002301
:10242000039323685A6903929B690393039B10E00B
:10243000236C042B55D12268136843F40073136096
:102440000126A2E72A460A992046FFF7ACFE00289B
:102450002BD1238D002B32D02A460A992046FFF734
:102460007BFE0028E4D1636A5A1C626222681B78F2
:102470001361638D013B9BB26385238D013B9BB24E
:1024800023852268516911F0040FDBD0002BD9D0CD
:10249000636A591C61621B781361638D013B9BB2B7
:1024A0006385238D013B2385CCE7236C042B1AD154
:1024B0002268136843F400731360012665E72268FD
:1024C000136843F400731360202384F83D30002325
:1024D00084F83E3084F83C3057E7022655E7022660
:1024E00053E7032651E703264FE700BF0200100021
:1024F0002DE9F04186B004460E4690461F46FEF791
:1025000033FC94F83D30DBB2202B04D00226304659
:1025100006B0BDE8F08105460090192301228C49E0
:102520002046FFF7AFFC002840F04B8194F83C3088
:10253000012B00F04881012384F83C3023681A689D
:1025400012F0010F03D11A6842F001021A602268EA
:10255000136823F400631360222384F83D301023B2
:1025600084F83E3000232364C4F824806785A3F5F3
:102570008033E362638D23852B460C9A31462046D7
:10258000FFF75AFD064660B1236C042B04D10023EB
:1025900084F83C300126BAE7002384F83C30032657
:1025A000B5E7238D5BB9029323685A6902929A6951
:1025B0000292029A1A6842F400721A607AE0012BC1
:1025C0000FD0022B1FD02268136843F4806313607E
:1025D0000023059323685A6905929B690593059B1F
:1025E00068E02268136823F4806313600023039378
:1025F00023685A6903929A690392039A1A6842F40B
:1026000000721A6056E02268136823F48063136036
:102610002268136843F40063136000230493236863
:102620005A6904929B690493049B43E02A460C99DF
:102630002046FFF7DFFD68B923681A69636A591CF1
:1026400061621A70238D013B2385638D013B9BB230
:1026500063852FE0236C202B01D0012657E703264A
:1026600055E700950C9B00223A492046FFF70AFCEB
:10267000002840F0AA802268136843F400731360B6
:1026800023681A69636A591C61621A70238D013BC1
:102690002385638D013B9BB2638523681A69636A56
:1026A000591C61621A70238D013B2385638D013BA8
:1026B0009BB26385238D002B7AD0032B4CD8012B42
:1026C000B4D0022BCDD000950C9B0022214920468E
:1026D000FFF7D8FB00287AD12268136823F48063BF
:1026E000136023681A69636A591C61621A70238D2A
:1026F000013B2385638D013B9BB2638500950C9B59
:10270000002214492046FFF7BDFB002861D1226852
:10271000136843F40073136023681A69636A591CD1
:1027200061621A70238D013B2385638D013B9BB24F
:10273000638523681A69636A591C61621A70238D64
:10274000013B2385638D013B9BB26385B2E700BFEC
:1027500002001000040001002A460C992046FFF7F1
:1027600049FDF0B923681A69636A591C61621A70DD
:10277000238D013B2385638D013B9BB263852368D9
:102780005A6912F0040F95D01A69636A591C616284
:102790001A70238D013B2385638D013B9BB26385BA
:1027A00088E7236C202B01D00126B0E60326AEE695
:1027B000202384F83D30002384F83E3084F83C30F8
:1027C000A5E60226A3E60226A1E603269FE6032647
:1027D0009DE603269BE600BF70B483B0BDF81C6085
:1027E0000024019490F83D40E4B2202C59D1314CA2
:1027F0002468E408304DA5FB0454240A04EB840447
:1028000004EB84040194019C651E0195002C3FD0CB
:102810000468A56915F0020FF5D190F83C50012D20
:1028200043D0012580F83C50256815F0010F03D1F5
:10283000256845F00105256005682C6824F40064CE
:102840002C60222480F83D40402480F83E40002443
:102850000464069D456206854685184DC56241643F
:102860008264C36404650268136843F48063136080
:102870000268136843F48073136080F83C40038D52
:10288000ABB10268536843F4E0635360204609E04B
:1028900000230363202280F83D2080F83C30032091
:1028A00000E0022003B070BC70470220FAE700206D
:1028B000F8E700BF0C00002089B5F8140000FFFF06
:1028C0007047704708B590F83D30DAB2438D9BB23F
:1028D00073B1436A591C416201681B780B61438DD7
:1028E000013B9BB24385438D9BB20BB9292A01D092
:1028F000002008BD0268536823F4806353602123DD
:102900000363282380F83D30FFF7DBFFF0E77047D3
:1029100090F83D30DAB2438D9BB2F3B110B5036845
:102920001969436A5C1C44621970438D013B9BB278
:102930004385438D9BB20BB92A2A01D0002010BDDC
:102940000268536823F480635360222303632823BF
:1029500080F83D30FFF7DBFFF0E70020704770475D
:1029600008B503689A6912F0040F09D000219B6929
:1029700013F0800F06D0028BFFF7F1FF002008BD97
:102980000121F4E78289F7E77047000008B590F865
:102990003D30DBB2C26A042A01D0082A01D1282BBB
:1029A00007D0212B1FD003686FF480625A6100208A
:1029B00008BD1A4BC3620268536823F4E063536096
:1029C00003686FF480625A610268136823F48063BD
:1029D000136000230363202280F83D2080F83E30FE
:1029E000FFF7D2FFE3E70D4BC362212303632023EC
:1029F00080F83D30002380F83E300268536823F4AD
:102A0000E063536003686FF480625A610268136880
:102A100023F480631360FFF754FFC8E70000FFFF53
:102A2000704710B590F83D30DBB290F83E20D2B23E
:102A3000C46A018D09B9212B05D0212B3CD0402A35
:102A400038D0002010BD042C04D0082C02D014F57E
:102A5000803F19D10268536823F4E0635360026831
:102A6000136843F40073136000230363202380F88A
:102A70003D3090F83E30DBB2402B15D0002380F87B
:102A80003E30FFF71DFFDCE70268536823F4E06384
:102A9000536011230363002380F83E30202380F825
:102AA0003D30FFF70DFFCCE7002380F83E30FFF705
:102AB000B7FFC6E7222BC4D1438D9BB27BB190F800
:102AC0003E30DBB2402B10D0436A5A1C426202688F
:102AD0001B781361438D013B9BB24385B1E70268CC
:102AE000536823F480635360ABE7036D9BB9C36CF9
:102AF000012B08D0836CC3F3072302681361036DB5
:102B0000013303659DE7836C0268DBB21361036DDB
:102B10000233036595E7036D012B17D0036D022B7C
:102B20008FD190F83D30DBB2222B17D090F83D309A
:102B3000DBB2212B85D1436A5A1C426202681B78A2
:102B40001361438D013B9BB243857AE7836C026836
:102B5000DBB21361036D0133036572E7026813682A
:102B600043F4807313606CE708B5C26A90F83D3097
:102B7000DBB2212B01D0002008BD438D9BB203BBEB
:102B8000042A04D0082A02D012F5803F24D102681A
:102B9000536823F4E06353600268136843F40073DE
:102BA000136000230363202380F83D3090F83E300B
:102BB000DBB2402B20D0002380F83E30FFF780FEB0
:102BC000D9E7436A5A1C426202681B781361438D3D
:102BD000013B9BB24385CEE70268536823F4E06370
:102BE000536011230363002380F83E30202380F8D4
:102BF0003D30FFF765FEBEE7002380F83E30FFF76B
:102C00000FFFB8E708B590F83D30DBB2222B01D0BA
:102C1000002008BD438D9BB2032B13D903681A69AA
:102C2000436A591C41621A70438D013B9BB2438534
:102C3000438D9BB2032BEBD10268536823F480636E
:102C40005360E5E7012BE3D80268136823F480633F
:102C500013600268536823F4E063536003681A69E1
:102C6000436A591C41621A70438D013B9BB24385F4
:102C7000202380F83D300023036390F83E30DBB220
:102C8000402B05D0002380F83E3003F0D1FBBFE796
:102C9000002380F83E3003F03BFBB9E708B5C26A79
:102CA000438D9BB2042B13D0438D9BB2032B1FD0BB
:102CB000438D9BB2022B30D003681A69436A591CBA
:102CC00041621A70438D013B9BB24385002008BDD1
:102CD0000268536823F48063536003681A69436A87
:102CE000591C41621A70438D013B9BB24385EDE74D
:102CF0000268536823F4806353600268136823F406
:102D00008063136003681A69436A591C41621A7030
:102D1000438D013B9BB24385D8E7013A012A2DD967
:102D20000268136843F40073136003681A69436A06
:102D3000591C41621A70438D013B9BB24385036865
:102D40001A69436A591C41621A70438D013B9BB258
:102D500043850268536823F440735360202380F84E
:102D60003D300023036390F83E30DBB2402B10D09F
:102D7000002380F83E3003F05BFBA7E7026813688E
:102D800023F4806313600268136843F48073136054
:102D9000CBE7002380F83E3003F0BAFA96E770479D
:102DA0007047000010B5044690F83D30293B012BD8
:102DB00037D990F83D30DBB2602B07D003685B68F1
:102DC00013F4006F02D1202380F83D3000232363E9
:102DD00084F83E302268136823F40063136023688C
:102DE0005A6812F4006F3FD05A6822F400625A60A9
:102DF000626B92F83530DBB2012B18D03A4B136579
:102E0000606BFEF7E9F800283FD02268136823F0D2
:102E100001031360202384F83D30606B036D9847F5
:102E200033E000230363282380F83D30D2E7A36B0F
:102E30002D4A1A65A06BFEF7CFF830B323685A69A4
:102E400012F0400F04D01A69636A591C61621A704B
:102E50002268136823F001031360202384F83D30B7
:102E6000A06B036D984710E094F83D20D2B2602A21
:102E700011D05A6912F0400F04D01A69636A591CC4
:102E800061621A702046FFF78AFF94F83D30DBB28A
:102E9000282B17D010BD202284F83D200022226468
:102EA0005A6912F0400F04D01A69636A591C6162B2
:102EB0001A702268136823F0010313602046FFF79D
:102EC0006FFFE2E7236C13F0040FE3D0074BE362DC
:102ED00000232363202284F83D2084F83E302046DE
:102EE000FFF752FDD6E700BF2D3200080000FFFFBC
:102EF00010B582B090F83D30DBB201684A6822F428
:102F0000E0624A60002201920268516901911168F1
:102F100041F001011160019A01680A6822F480629F
:102F20000A6001684A6812F4006F14D090F83D20DE
:102F3000D2B2222A0AD090F83D20D2B22A2A05D055
:102F4000426B1268526892B2428504E0826B12684A
:102F5000526892B24285428D92B2F2B14A6912F041
:102F6000040F08D00969426A541C44621170428DF2
:102F7000013A92B242850268516911F0400F08D0BF
:102F80001169426A541C44621170428D013A92B236
:102F90004285026C42F004020264026CA2B9282B42
:102FA00015D02A2B13D0292B11D0026B222A01D045
:102FB000222B17D100230363202280F83D2080F8C4
:102FC0003E30FFF7A4FC0DE0FFF7ECFE0AE0074BF4
:102FD000C36200230363202280F83D2080F83E3046
:102FE000FFF7D2FC002002B010BD00BF0000FFFFC1
:102FF000F8B5054603689F695C695E6890F83E30E5
:10300000DBB2102B25D0402B23D04C4B234013B1E7
:1030100016F4007F6ED14A4B234013B116F4007FA3
:103020006BD1484B3B40002B6FD0474B234033B113
:1030300016F4806F03D0454B2340002B61D0434BE7
:10304000234053B316F4007F27D02846FEF7E7FE4F
:1030500023E014F0011F02D016F4007F1ED13C4B78
:10306000234013B116F4007F1CD1344B234013B11D
:1030700016F4007F1AD1334B3B401BB3324B234035
:103080002BB116F4806F02D0304B234093B12F4BFD
:10309000234013B116F4007F10D1F8BD2846FEF787
:1030A0008DFDE8E72846FEF7CEFDE4E72846FEF76B
:1030B000D0FDE0E72846FFF7B4FCEEE72846FFF72F
:1030C00053FDEAE7234B23402BB116F4806F02D067
:1030D0001E4B234053B11D4B2340002BDDD016F473
:1030E000007FDAD02846FFF7D9FDD6E72846FFF75C
:1030F00089FDD2E7FFF734FCCFE72846FFF7F8FE5B
:10310000CBE72846FFF7DEFBC7E7124B23402BB186
:1031100016F4806F02D00D4B234053B10B4B23406C
:10312000002BBAD016F4007FB7D02846FEF786FEF3
:10313000B3E72846FFF7ECFBAFE700BF0200010052
:1031400010000100040010008000010004000100D4
:10315000080001004000010070B5044603685D6985
:103160005E68314A154209D016F4807F06D0026CA1
:1031700042F0010202646FF480725A6115F4813FDB
:103180000AD016F4807F07D0236C43F00203236437
:1031900023686FF400725A6115F4823F1AD016F456
:1031A000807F17D094F83E30DBB2628D91B294F8F4
:1031B0003D20D2B2206B202B1DD0236C43F00403A2
:1031C000236494F83E30DBB2102B22D023686FF4D6
:1031D00080625A6115F4843F0AD016F4807F07D0CC
:1031E000236C43F00803236423686FF400625A6180
:1031F000236CA3B970BD0029DFD1212A05D0292A6B
:1032000003D0282AD9D12128D7D12046FFF7BEFBE9
:10321000E0E72268136843F400731360D6E72046A2
:10322000FFF7C0FDE6E700BF0001010008B5806BB5
:103230000268136823F48063136000234385426BA4
:103240001365826B136590F83D30DBB2602B0DD0B7
:10325000202380F83D30002380F83E300268136858
:1032600023F001031360FFF79AFD08BD202380F8C7
:103270003D30002380F83E3003640268136823F079
:1032800001031360FFF78CFDEFE7704708B5436A51
:103290009A1C426202681B88D360438D013B9BB23B
:1032A0004385438D9BB203B108BD0268536823F088
:1032B000A0031B041B0C5360012380F84130FFF76F
:1032C000E4FFF1E7704708B50368DA68C36A991C40
:1032D000C1621A80438E013B9BB24386438E9BB2F0
:1032E00003B108BD0268536823F060031B041B0C84
:1032F0005360012380F84130FFF7E4FFF1E77047A6
:10330000002800F0BB8070B50446022580F84150CB
:103310005B4B436303F05AFA2268D36923F47B635F
:1033200023F00F03D36123681D622368DD6963699D
:10333000022B5BD0E368002B3ED02026A368202B15
:1033400000D87600012000F097FE2369B3F5007FD6
:1033500034D0B0FBF6F000EB800043006269B3FBB1
:10336000F2F30533474AA2FB0323DB0803F0010213
:103370009B1AC3F34F0311029A1EFD2A38D8226903
:103380000A43216813430B626268A168E068238BDB
:1033900003439BB20B439BB213439BB243F40063C2
:1033A0001D432368DD61236A012B2AD0002060645D
:1033B000012384F8413070BD1026BFE7E36853B1A4
:1033C000B600B0FBF6F000EB800043006269B3FB8F
:1033D000F2F30533C6E7F600B0FBF6F000EB800031
:1033E00043006269B3FBF2F30533BBE70021C3E797
:1033F000636C43F0100363642046FFF780FF0120F5
:10340000D9E7214B63632268204B9A421ED04FF0CC
:103410004022D36923F47B6323F00F03D361226836
:103420001A4B9A4214D04FF0402302221A622268AB
:10343000164B9A420FD04FF04022D0696168B1F527
:10344000007F0AD0C1B94FF4807608E0104AE0E767
:10345000A3F58063E9E70E4AEFE74FF48076A168B1
:10346000E568238B2B439BB20B439BB2334343F45E
:1034700000630343D36199E70026F0E7012070471A
:1034800095340008CDCCCCCCB136000800380040D3
:103490000034004010B584B004460268936803937A
:1034A00090F84130DBB2042B06D094F84130DBB207
:1034B000032B2ED004B010BD039B13F0010F03D0DB
:1034C000536813F0400F21D1039B13F0400FECD051
:1034D00023685A6812F0200FE7D05A6822F0600281
:1034E0001204120C5A60002301932368DA680192D7
:1034F0009B680193019B012384F84130636C43F086
:10350000020363642046FFF7FAFECEE7FFF7DBFE17
:10351000DAE7039B13F0020F04D023685B6813F013
:10352000800F1FD1039B13F0080FC3D023685A6884
:1035300012F0200FBED05A6822F0A0021204120C22
:103540005A600023029323689B680293029B012325
:1035500084F84130636C43F0040363642046FFF752
:10356000CEFEA7E72046FFF791FEDBE7704700009D
:1035700008B5E9B9436A9A1C426202681B88D360A5
:10358000438D013B9BB24385438D9BB24BB902688F
:10359000536823F0A0031B041B0C5360438E9BB2A3
:1035A00003B108BD012380F84130FFF7DFFFF8E7E2
:1035B000436A9A1C42621A880168134B99421ED0D2
:1035C0004FF04023DA60438D013B9BB24385438D2E
:1035D0009BB2002BE5D102680B4B9A4212D04FF000
:1035E0004022536823F0A0035360438E9BB2002B0C
:1035F000D7D1012380F84130FFF7B8FFD1E7A3F519
:103600008063DFE7014AECE7003800400034004007
:1036100008B5E9B90368DA68C36A991CC1621A80FF
:10362000438E013B9BB24386438E9BB24BB90268EB
:10363000536823F060031B041B0C5360438D9BB243
:1036400003B108BD012380F84130FFF78FFFF8E791
:103650000268154B9A4222D04FF04023DA68C36AC1
:10366000991CC1621A80438E013B9BB24386438EF4
:103670009BB2002BE5D102680B4B9A4212D04FF05F
:103680004022536823F060035360438D9BB2002BAC
:10369000D7D1012380F84130FFF768FFD1E7A3F5C8
:1036A0008063DBE7014AECE700380040003400406B
:1036B00010B584B0044603689A6803927C4A93422A
:1036C0005DD04FF040218A680292DA6902F44072BC
:1036D000B2F5007F04D0DA6912F4407F40F08180B7
:1036E000039A12F0020F03D05B6813F0800F48D1E9
:1036F000029B13F0010F09D022686D4B9A4245D00E
:103700004FF040235B6813F0400F42D1029B13F04F
:10371000400F09D02268664B9A423FD04FF04023B9
:103720005A6812F0200F3CD1039B13F0080F24D0ED
:1037300023685A6812F0200F1FD05A6822F0A002A6
:103740001204120C5A602268594B9A4247D04FF02B
:103750004022536823F060035360002301932368E1
:103760009B680193019B012384F84130636C43F013
:10377000040363642046FFF7C2FD04B010BD4D4949
:10378000A1E700212046FFF7F3FEB1E7A3F5806330
:10379000B8E701212046FFF73BFFB7E7A3F58063B9
:1037A000BEE75A6822F060025A602268536823F02C
:1037B000A0031B041B0C5360002300932368DA68EA
:1037C00000929B680093009B012384F84130636C56
:1037D00043F0020363642046FFF791FDA4E7354AF6
:1037E000B7E7029B13F0020F03D04B6813F0800F72
:1037F0004FD1039B13F0010F04D023685B6813F0D3
:10380000400F4BD1039B13F0400F1ED023685A6822
:1038100012F0200F19D05A6822F060021204120C24
:103820005A602268224B9A423DD04FF040225368A2
:1038300023F0A0035360012384F84130636C43F00C
:10384000020363642046FFF75AFD029B13F0080F42
:1038500093D02268164B9A4227D04FF040235A68E3
:1038600012F0200F89D05A6822F0A0025A60226814
:10387000536823F060031B041B0C5360012384F87E
:103880004130636C43F0040363642046FFF737FD67
:1038900073E701212046FFF76BFEAAE700212046CF
:1038A000FFF7B6FEAEE7034AC1E7A3F58063D6E7AC
:1038B0000038004000340040002800F0BB8170B5A3
:1038C00082B00446036813F0010F3BD0A74B9B68FE
:1038D00003F00C03042B2CD0A44B9B6803F00C03C7
:1038E000082B21D06368B3F5803F4FD0B3F5A02FEC
:1038F00052D09E4B1A6822F480321A601A6822F461
:1039000080221A606368002B50D0FDF72DFA05461F
:10391000964B1B6813F4003F14D1FDF725FA401BAA
:103920006428F5D903208AE1904B5B6813F4800F7B
:10393000D8D08E4B1B6813F4003F03D06368002B74
:1039400000F07A81236813F0020F55D0874B9B68F3
:1039500013F00C0F3ED0854B9B6803F00C03082B33
:1039600033D0E368002B68D0814B01221A60FDF749
:10397000FBF905467D4B1B6813F0020F54D1FDF790
:10398000F3F9401B0228F5D9032058E1774A136860
:1039900043F480331360B5E7744B1A6842F4802215
:1039A0001A601A6842F480321A60ABE7FDF7DCF95E
:1039B00005466E4B1B6813F4003FC3D0FDF7D4F9E6
:1039C000401B6428F5D9032039E1684B5B6813F488
:1039D000800FC6D1654B1B6813F0020F04D0E3685B
:1039E000012B01D001202AE1604A136823F0F8037B
:1039F000216943EAC1031360236813F0080F40D024
:103A0000636963B35B4B01221A60FDF7ADF90546AC
:103A1000564B5B6F13F0020F33D1FDF7A5F9401B36
:103A20000228F5D903200AE1504A136823F0F8036D
:103A3000216943EAC1031360DEE74D4B00221A609F
:103A4000FDF792F90546494B1B6813F0020FD3D0DE
:103A5000FDF78AF9401B0228F5D90320EFE0454B1A
:103A600000221A60FDF780F90546404B5B6F13F0AA
:103A7000020F06D0FDF778F9401B0228F5D9032084
:103A8000DDE0236813F0040F79D0384B1B6C13F082
:103A9000805F33D100230193344B1A6C42F0805283
:103AA0001A641B6C03F080530193019B0125324B78
:103AB0001B6813F4807F23D0A368012B34D0052B1F
:103AC00038D02A4B1A6F22F001021A671A6F22F0BF
:103AD00004021A67A368002B36D0FDF745F90646A5
:103AE000224B1B6F13F0020F48D1FDF73DF9801BED
:103AF00041F288339842F3D90320A0E00025D6E7AD
:103B00001D4A136843F480731360FDF72DF90646D0
:103B1000194B1B6813F4807FCED1FDF725F9801B6C
:103B20000228F5D903208AE0104A136F43F00103FD
:103B30001367CFE70D4B1A6F42F004021A671A6F32
:103B400042F001021A67C5E7FDF70EF90646074B7A
:103B50001B6F13F0020F11D0FDF706F9801B41F225
:103B600088339842F3D9032069E000BF003802404F
:103B700000004742800E474200700040E5B9A3694B
:103B8000002B5BD0304A926802F00C02082A58D011
:103B9000022B17D02D4B00221A60FDF7E5F80446E2
:103BA000294B1B6813F0007F42D0FDF7DDF8001BA6
:103BB0000228F5D9032042E0234A136C23F08053F6
:103BC0001364DCE7214B00221A60FDF7CDF80546AF
:103BD0001D4B1B6813F0007F06D0FDF7C5F8401B96
:103BE0000228F5D903202AE0E369226A1343626AB6
:103BF00043EA8213A26A5208013A43EA0243E26AA4
:103C000043EA0263104A5360104B01221A60FDF729
:103C1000ABF804460C4B1B6813F0007F06D1FDF790
:103C2000A3F8001B0228F5D9032008E0002006E0D5
:103C3000002004E001207047012000E0002002B0D5
:103C400070BD0120FBE700BF003802406000474222
:103C5000324B9B6803F00C03042B5CD0082B01D083
:103C60002F4870472DE9F04B2C4B5A6802F03F0269
:103C70005B6813F4800F2BD0284B5B68C3F3881369
:103C80001E4600275C010025E41A65EB0705A90123
:103C900041EA9461A001001B61EB0501CB0043EAFE
:103CA0005073C400A01943EB07014B0243EAD05301
:103CB0004402204619460023FCF7B0FE174B5B6810
:103CC000C3F3014301335B00B0FBF3F0BDE8F08BBD
:103CD000124B5B68C3F388131E4600275C01002566
:103CE000E41A65EB0705A90141EA9461A001001BF4
:103CF00061EB0501CB0043EA5073C400A01943EB0C
:103D000007018B0243EA90538402204619460023A0
:103D1000FCF784FED2E70348704700BF003802403A
:103D20000024F40000127A00002800F09D8070B595
:103D300004464F4B1B6803F00F038B4209D2CBB2F2
:103D40004B4A1370136803F00F038B4201D001201C
:103D500070BD236813F0020F17D013F0040F04D0C6
:103D6000444A936843F4E0539360236813F0080FC8
:103D700004D0404A936843F4604393603D4A93689B
:103D800023F0F003A068034393600D46236813F00B
:103D9000010F32D06368012B21D09A1E012A25D948
:103DA000344A126812F0020F60D032498A6822F059
:103DB000030213438B60FCF7D7FF06462D4B9B682D
:103DC00003F00C036268B3EB820F16D0FCF7CCFF54
:103DD000801B41F288339842F0D90320B8E7254A86
:103DE000126812F4003FE0D10120B1E7214A1268C5
:103DF00012F0007FD9D10120AAE71D4B1B6803F008
:103E00000F03AB4209D9EAB2194B1A701B6803F0D1
:103E10000F03AB4201D001209AE7236813F0040F8F
:103E200006D0144A936823F4E053E1680B4393608F
:103E3000236813F0080F07D00E4A936823F46043F9
:103E4000216943EAC1039360FFF702FF094B9B68B6
:103E5000C3F30313084AD35CD840084B1860002012
:103E600002F0F6FD002073E70120704701206FE7A4
:103E7000003C024000380240746C00080C00002036
:103E8000014B1868704700BF0C00002008B5FFF711
:103E9000F7FF044B9B68C3F38223034AD35CD840EB
:103EA00008BD00BF00380240846C000808B5FFF769
:103EB000E7FF044B9B68C3F34233034AD35CD8400B
:103EC00008BD00BF00380240846C00080F23036067
:103ED0000B4B9A6802F0030242609A6802F0F0020B
:103EE00082609A6802F4E052C2609B68DB0803F4C7
:103EF000E0530361034B1B6803F00F030B60704733
:103F000000380240003C024030B583B004460368EC
:103F100013F0050F0ED1236813F0020F38D1236878
:103F200013F0080F00F09B80227D4E4B1A6000209A
:103F300003B030BD4C4B00221A60FCF715FF05465C
:103F40004A4B1B6813F0006F06D0FCF70DFF401BB7
:103F50000228F5D90320EBE76368A26843EA8213DD
:103F6000E26843EA0273414AC2F884303E4B0122C0
:103F70001A60FCF7F9FE05463C4B1B6813F0006F16
:103F8000C9D1FCF7F1FE401B0228F5D90320CFE789
:103F900000230193354B1A6C42F080521A641B6C5B
:103FA00003F080530193019B314A136843F48073FB
:103FB0001360FCF7D9FE05462D4B1B6813F4807F78
:103FC00006D1FCF7D1FE401B0228F5D90320AFE74C
:103FD000264B1B6F13F4407312D0226902F4407217
:103FE0009A420DD0214B1A6F22F4407221490120D0
:103FF0000860002008601A671B6F13F0010F12D1D0
:10400000236903F44072B2F5407F1DD0174A9368CC
:1040100023F4F813936015490B6F2269C2F30B0266
:1040200013430B677BE7FCF79FFE05460F4B1B6FA7
:1040300013F0020FE4D1FCF797FE401B41F28833E6
:104040009842F3D9032073E708498A6822F4F812EA
:1040500023F0704323F4407313438B60DBE70020AD
:1040600066E700BFE011474268004742003802405F
:1040700000700040400E474201282CD1184B9B682D
:1040800013F4000303D0012B27D116487047144BBB
:104090005B6813F4800F15D0114BD3F8843003F014
:1040A0003F031148B0FBF3F00D4AD2F88430C3F35C
:1040B000881300FB03F0D2F88430C3F30273B0FB23
:1040C000F3F07047064BD3F8843003F03F03074802
:1040D000B0FBF3F0E8E7002070470020704700BF16
:1040E000003802400080BB0000127A000024F40077
:1040F000F8B505460F4616461C463BE02CB1FCF7CA
:1041000033FE069BC01AA04234D32A68536823F0BA
:10411000E00353606B68B3F5827F0BD0AB6AB3F5F5
:10412000005F14D0012385F85130002385F850300A
:10413000032027E0AB68B3F5004F02D0B3F5806FE2
:10414000ECD12A68136823F040031360E6E72A687D
:10415000136823F400531B041B0C13602A681368B4
:1041600043F400531360DDE70123B34209D0B4F1F7
:10417000FF3FC3D12B689B6837EA0303F4D00023C9
:10418000F3E70020F8BD10B582B0044600920B465C
:1041900000228021FFF7ACFF034610B9184602B099
:1041A00010BD636D43F0200363650323F6E7002829
:1041B0003BD010B504460023836290F85130002BA9
:1041C0002ED0022384F851302268136823F0400374
:1041D00013606368A2681343E268134322691343C0
:1041E00062691343A26902F400721343E269134344
:1041F000226A1343A16A22680B431360638B03F0A6
:104200000403616A22680B4353602268D36923F474
:104210000063D36100206065012384F8513010BD34
:1042200080F8503002F068FBCBE7012070472DE9A1
:10423000F04184B01E4690F85030012B00F0C88049
:1042400004460D469046012380F85030FCF78CFD63
:10425000074694F85130DBB2012B0AD00223012229
:1042600084F85120002284F85020184604B0BDE89C
:10427000F081002D00F0A480B8F1000F00F0A280C2
:10428000032384F85130002363652563A4F8348048
:10429000A4F83680A363A387E38763642364A368D9
:1042A000B3F5004F1BD023681A6812F0400F03D1FA
:1042B0001A6842F040021A60E368B3F5006F14D048
:1042C00063681BB1E38E9BB2012B3ED1236815F8C6
:1042D000012B1A73E38E013B9BB2E38635E0226823
:1042E000136843F480431360DDE763681BB1E38E1A
:1042F0009BB2012B0DD1236835F8022BDA60E38ED7
:10430000013B9BB2E38604E0002E5DD0B6F1FF3F97
:104310000FD1E38E9BB27BB323689A6812F0020F31
:10432000F2D035F8022BDA60E38E013B9BB2E386D4
:10433000EFE7FCF719FDC01BB042EAD303238EE779
:10434000002E43D0B6F1FF3F0FD1E38E9BB29BB15D
:1043500023689A6812F0020FF2D015F8012B1A7335
:10436000E38E013B9BB2E386EFE7FCF7FDFCC01B4D
:10437000B042EAD3032372E70097334601220221B9
:104380002046FFF7B5FE08B1032368E73A463146F9
:104390002046FFF7F8FE034618B12023636501238A
:1043A0005DE7A26832B903922268D16803919268EE
:1043B0000392039A626D002A3FF451AF01234EE746
:1043C00001234CE701234AE7032348E7032346E799
:1043D00002234AE72DE9F04385B099460C9D90F8F9
:1043E0005030012B00F0108104460F461646012381
:1043F00080F85030FCF7B8FC804694F85130DBB2BE
:104400006268012B15D0B2F5827F0AD00223012207
:1044100084F85120002284F85020184605B0BDE8E9
:10442000F083A268002A40F0E780042B01D0022329
:10443000EDE7002F00F0E280002E00F0E180B9F1FE
:10444000000F00F0DF8094F85130DBB2012B2BD04D
:1044500000236365A663A4F83E90A4F83C9027630C
:10446000A4F83690A4F834902364636423681A682F
:1044700012F0400F03D11A6842F040021A60E3685C
:10448000B3F5006F14D063681BB1E38E9BB2012BB0
:1044900007D1236817F8012B1A73E38E013B9BB2F7
:1044A000E3864FF0010961E0052384F85130CFE73E
:1044B00063681BB1E38E9BB2012B07D1236837F8E9
:1044C000022BDA60E38E013B9BB2E3864FF00109D9
:1044D00013E0E38F9BB26BB123689A6812F0010F6F
:1044E00008D0DB6826F8023BE38F013B9BB2E387F1
:1044F0004FF00109B5F1FF3F1CD1E38E9BB21BB910
:10450000E38F9BB2002B55D0B9F1000FE1D0E38EC1
:104510009BB2002BDDD023689A6812F0020FD8D02E
:1045200037F8022BDA60E38E013B9BB2E3864FF053
:104530000009CEE7FCF718FCA0EB0800A842DCD38A
:10454000032364E7E38F9BB26BB123689A6812F090
:10455000010F08D0DB683370E38F013B9BB2E38728
:1045600001364FF00109B5F1FF3F1BD1E38E9BB23D
:1045700013B9E38F9BB2EBB1B9F1000FE2D0E38E38
:104580009BB2002BDED023689A6812F0020FD9D0BC
:104590003A781A73E38E013B9BB2E38601374FF002
:1045A0000009CFE7FCF7E0FBA0EB0800A842DDD351
:1045B00003232CE7CDF800802B4601220221204660
:1045C000FFF796FD08B1032321E74246294620461E
:1045D000FFF7D9FD034618B120236365012316E7D1
:1045E000A268002A7FF413AF03922268D168039176
:1045F00092680392039A0AE7022308E7012306E779
:10460000012304E7012302E7022306E72DE9F04135
:1046100082B004460D4617461E464368B3F5827FB6
:1046200019D094F85030012B00F0A280012384F8B7
:104630005030FCF799FB804694F85130DBB2012BE7
:1046400015D00220012384F85130002384F8503023
:1046500002B0BDE8F0818368002BE2D1042380F82A
:104660005130009613460A46FFF7B4FEF0E7002DDE
:1046700074D0002F74D0042384F851300023636574
:10468000A563A787E7872363A386E3862364636420
:10469000A368B3F5004F0BD023681A6812F0400FDF
:1046A00003D11A6842F040021A60E3685BB128E067
:1046B0002268136823F480431360EDE7002E51D085
:1046C000B6F1FF3F10D1E38F9BB2002B31D02368AE
:1046D0009A6812F0010FF1D01B7B05F8013BE38FC4
:1046E000013B9BB2E387EEE7FCF73EFBA0EB080043
:1046F000B042E8D30320A5E7002E35D0B6F1FF3F46
:104700000FD1E38F9BB2A3B123689A6812F0010F17
:10471000F2D0DB6825F8023BE38F013B9BB2E387D5
:10472000EFE7FCF721FBA0EB0800B042E9D3032040
:1047300088E76368B3F5827F03D0636DB3B9002067
:1047400080E7A368B3F5004F02D0B3F5806FF4D1D2
:104750002268136823F040031360EEE7012071E73D
:1047600001206FE703206DE703206BE7012069E775
:1047700002206DE77047000010B584B0044602685F
:104780005068936803F0410101290AD013F0020F29
:104790000ED010F0800F0BD0636C2046984704B009
:1047A00010BD10F0400FF1D0236C20469847F6E77B
:1047B00013F4B07FF3D010F0200FF0D013F0400FBF
:1047C0000FD094F85110C9B203294AD0616D41F05D
:1047D0000401616500210091D16800919168009108
:1047E000009913F0200F0CD0616D41F0010161655B
:1047F0000021029191680291116821F0400111603D
:10480000029A13F4807F09D0636D43F00803636557
:104810000023039323689B680393039B636D002B22
:10482000BDD02268536823F0E0035360012384F86D
:10483000513010F0030F1CD02268536823F003039B
:104840005360E36C23B10D4A1A65E06CFCF7C4FBBE
:10485000A36C002BA3D0094A1A65A06CFCF7BCFB23
:104860009DE700230193D368019393680193019B13
:1048700095E72046FFF77EFF91E700BF81480008DB
:1048800008B5806B0023C387C386FFF773FF08BD9D
:1048900070470268D36843F00103D360026813686D
:1048A00043F0010313600020704770477047704762
:1048B000704710B5044603681A6912F0020F11D050
:1048C000DA6812F0020F0DD06FF002021A610123B4
:1048D000037603689B6913F0030F70D0FFF7E6FFC0
:1048E0000023237623681A6912F0040F12D0DA68C5
:1048F00012F0040F0ED06FF004021A610223237627
:1049000023689B6913F4407F5FD02046FFF7CEFFFA
:104910000023237623681A6912F0080F12D0DA6890
:1049200012F0080F0ED06FF008021A6104232376EC
:104930002368DB6913F0030F4ED02046FFF7B6FF64
:104940000023237623681A6912F0100F12D0DA6858
:1049500012F0100F0ED06FF010021A6108232376A8
:104960002368DB6913F4407F3DD02046FFF79EFFAC
:104970000023237623681A6912F0010F03D0DA6846
:1049800012F0010F36D123681A6912F0800F03D09C
:10499000DA6812F0800F34D123681A6912F0400FE0
:1049A00003D0DA6812F0400F32D123681A6912F08E
:1049B000200F03D0DA6812F0200F30D110BDFFF7BE
:1049C00074FF2046FFF773FF8AE72046FFF76DFF6D
:1049D0002046FFF76CFF9BE72046FFF766FF204667
:1049E000FFF765FFACE72046FFF75FFF2046FFF7C4
:1049F0005EFFBDE76FF001021A61204601F01AFD6B
:104A0000C1E76FF080021A61204600F073F8C3E737
:104A10006FF040021A612046FFF74AFFC5E76FF0CA
:104A200020021A61204600F064F8C7E70368234AB1
:104A300090420ED0B0F1804F0BD0A2F57C42904254
:104A400007D002F58062904203D002F58062904266
:104A500003D123F070034A681343184A90421AD0D6
:104A6000B0F1804F17D0A2F57C42904213D002F5EE
:104A7000806290420FD002F5806290420BD002F526
:104A80009A32904207D002F58062904203D002F53C
:104A90008062904203D123F44073CA6813430360D9
:104AA0008B68C3620B688362044B984202D0012377
:104AB000436170470B690363F9E700BF00000140E1
:104AC000A8B110B5044690F839305BB1022384F8E0
:104AD0003930211D2068FFF7A9FF012384F8393000
:104AE000002010BD80F83830FFF7D2FEEEE701203D
:104AF00070477047704784B010B5044603A880E83B
:104B00000E00089B012B20D1A36B23F48033A363F9
:104B1000E36823F4840323F04003E360E36823F4B1
:104B20004013E3600F9B012B0AD0204600F080F871
:104B3000069B012B14D00020BDE8104004B0704744
:104B4000E36843F48013E360EFE7E36843F0400376
:104B5000E360204600F06CF84FF48033A363E7E78E
:104B6000A36843F00603A360A36843F02003A36097
:104B7000E1E7836823F0010383600020704708B5F4
:104B8000C36823F0C043C360012909D019B9C368C1
:104B900043F08043C3603220FCF7ECF8002008BDEE
:104BA000C36843F00053C360F5E70000890141F09A
:104BB0002001016100230133054A934205D80269AF
:104BC00012F0200FF7D1002070470320704700BF7C
:104BD000400D03001023036100230133054A934273
:104BE00005D8026912F0100FF7D10020704703209A
:104BF000704700BF400D0300033292080023934228
:104C00000CD210B400F58054246841F8044B0133F1
:104C10009342F7D308465DF8044B70470846704747
:104C20004269806910407047406900F00100704798
:104C3000002301330C4A934211D80269002AF8DAA2
:104C4000036943F00103036100230133064A9342E1
:104C500007D8026912F0010FF7D100207047032036
:104C600070470320704700BF400D030084B038B583
:104C7000044605A880E80E0025460023C4F8003E3F
:104C8000A36B23F48023A363A36B23F40023A36308
:104C9000A36B43F40013A363079B032B0ED0D4F83C
:104CA000003423F00403C4F8003410212046FFF739
:104CB0007DFF2046FFF78EFF002213E0B4F1A04FE6
:104CC000EDD0D4F8003443F00403C4F80034ECE72A
:104CD00005EB42134FF0FF31C3F808150021C3F86C
:104CE0000C150132069B9342F2D80121204600F0B8
:104CF00053F8C820FCF73EF80023A3614FF0FF33C0
:104D00006361B4F1A04F17D04FF40073636203F1F5
:104D10008073A3620D4BC4F80031089B1BB9A369D3
:104D200043F01003A361A269094B1343A361002060
:104D3000BDE8384004B070478023636203F5C003C8
:104D4000A362044BC4F80031E7E700BF0003E000B2
:104D5000080020A3E000400010B400F58064D0F803
:104D6000003423F00303C0F80034D0F8003401F01D
:104D700003021343C0F80034012905D0022907D0EB
:104D800000205DF8044B70474BF680336360F7E713
:104D900041F270736360F3E782B0D0F8403401935E
:104DA000019B23F02E030193019B13F4805F01D13B
:104DB00001290CD0019B13F4805F05D021B9019B20
:104DC00023F48053C0F84034002002B07047019BA8
:104DD00043F48053C0F84034ECE780B483B000AFB4
:104DE00078607B6803F580635B699BB218460C377B
:104DF000BD465DF8047B704780B485B000AF786035
:104E00000B46FB700023FB60FB785A017B68134460
:104E100003F5A0631B689B0C03F00303002B0BD06E
:104E2000FB785A017B68134403F5A0631B689B0C55
:104E300003F00303022B5CD1FB785A017B68134417
:104E400003F5A0631B68FA7851017A680A4402F5F9
:104E5000A06243F0804313607B68DB6A03F47F0346
:104E6000002B33D1FB785A017B68134403F5A06310
:104E70001B68FA7851017A680A4402F5A06223F0AF
:104E800000431360FB785A017B68134403F5A06369
:104E90001B68FA7851017A680A4402F5A06243F06F
:104EA00000431360FB680133FB60FB68B3F57A7F56
:104EB0001DD8FB785A017B68134403F5A0631B6877
:104EC00003F00043B3F1004FECD06FE0FB785A01E0
:104ED0007B68134403F5A0631B68FA7851017A6874
:104EE0000A4402F5A06243F0004313605EE000BF95
:104EF0005CE0FB785A017B68134403F5A0631B68F0
:104F0000FA7851017A680A4402F5A06243F08043BE
:104F100013607B6803F580631B699BB2002B33D160
:104F2000FB785A017B68134403F5A0631B68FA7889
:104F300051017A680A4402F5A06223F0004313602D
:104F4000FB785A017B68134403F5A0631B68FA7869
:104F500051017A680A4402F5A06243F000431360ED
:104F6000FB680133FB60FB68B3F57A7F1DD8FB78E3
:104F70005A017B68134403F5A0631B6803F00043E8
:104F8000B3F1004FECD011E0FB785A017B68134479
:104F900003F5A0631B68FA7851017A680A4402F5A8
:104FA000A06243F00043136000E000BF00231846F6
:104FB0001437BD465DF8047B7047842801D0033068
:104FC00070470020704708B500F0C0F9002008BD08
:104FD000F0B585B00F46446805680669B0F9080069
:104FE000FFF7EBFF03AB019300903B46B2B22946BB
:104FF000204600F079F9012802D1039805B0F0BDF0
:105000000020FBE708B5034600B90123184600F06D
:10501000DFFA002008BD00F1080343604FF0FF32C3
:105020008260C36003610023036070470023036153
:10503000704743684B609A688A609A6851609960CB
:105040000861036801330360704730B40D68B5F13F
:10505000FF3F02D000F1080202E0026904E01A46B4
:1050600053681C68AC42FAD953684B6099608A60F7
:105070005160086103680133036030BC7047036905
:105080004268816891608268416851605A688242D2
:1050900005D00022026118680138186070478268E4
:1050A0005A60F6E7074B9B6A1B6833B1054B9A6A57
:1050B000D268D2685268DA627047024B4FF0FF3212
:1050C000DA6270472C00002010B50446006B00F037
:1050D00063FD204600F060FD10BD2DE9F0478046DD
:1050E0009946089D099F0A9C266B02F18042013A6D
:1050F00006EB820626F0070600230F2B07D8C85CB4
:10510000E21882F83400CA5C0AB10133F5E70023E3
:1051100084F84330062D00D90625E56265644FF01A
:10512000000AC4F848A0201DFFF780FF04F1180012
:10513000FFF77CFF2461C5F10705A5616462C4F82F
:105140004CA084F850A04A464146304600F020FB6F
:10515000206007B13C60BDE8F087000070B5002416
:1051600007E004EB8402930010481844FFF753FF54
:105170000134062CF5D90E4C04F1BC063046FFF77D
:105180004AFF04F1D0052846FFF745FF04F114005B
:10519000FFF741FF04F1E400FFF73DFF2046FFF772
:1051A0003AFFA662C4F8F85070BD00BF5C00002052
:1051B0002C00002038B5054600F014FB264BD3F830
:1051C000FC200132C3F8FC20D3F8003173B1224B2C
:1051D000D3F804318BB9204BD3F80031DA6AEB6A8B
:1051E0009A420AD81C4BC3F8005106E01A4BC3F888
:1051F0000051D3F8FC30012B2AD0174CD4F80831D9
:105200000133C4F80831EB6A01229A40D4F80C113A
:105210000A43C4F80C2104F1300003EB83039A0025
:10522000291D1044FFF705FF00F0FEFAD4F8043101
:105230006BB1D4F80031DA6AEB6A9A4207D2074BB5
:105240004FF080521A60BFF34F8FBFF36F8F38BD9E
:10525000FFF784FFD1E700BF2C00002004ED00E041
:1052600070B504460E461F4BD3F81051D3F8000119
:105270000430FFF704FF60B91A4BD3F80021D16A5C
:10528000012202FA01F1D3F80C2122EA0102C3F84B
:105290000C21B4F1FF3F12D02C44124BD3F8003153
:1052A0005C60A54214D80F4DA86AD5F800110431EE
:1052B000FFF7CBFEEB6AA34212D9EC6210E0002E9E
:1052C000EAD00848D0F800110431FFF7B2FE07E039
:1052D000044BD3F8F800D3F800110431FFF7B5FE02
:1052E00070BD00BF2C0000202DE9F04385B00746BB
:1052F000884615469946900000F0D4FBF8B1064662
:10530000542000F0CFFB0446A8B10663D4B10023BB
:10531000039302940D9B01930C9B00934B462A46EA
:1053200041463846FFF7D9FE2046FFF743FF0120EC
:1053300005B0BDE8F083304600F02EFCE6E74FF004
:10534000FF30F5E74FF0FF30F2E7000000B583B023
:10535000174B019300230093802216491648FFF74C
:10536000C3FF012805D0B0F1FF3F17D003B05DF8AF
:1053700004FB4FF0500383F31188BFF36F8FBFF32B
:105380004F8F0E4B4FF0FF32DA620122C3F8042137
:105390000022C3F8102100F0C1FAE7E74FF05003F4
:1053A00083F31188BFF36F8FBFF34F8FFEE700BF0A
:1053B000480100208C6C0008715600082C00002069
:1053C000034AD2F818310133C2F81831704700BFD0
:1053D0002C0000202DE9F041404BD3F81831002B70
:1053E0006CD13E4BD3F810510135C3F81051CDB9F3
:1053F0009B6A1B6843B14FF0500383F31188BFF3DE
:105400006F8FBFF34F8FFEE7344B9A6AD3F8F810D3
:105410009962C3F8F820D3F820210132C3F8202183
:10542000FFF740FE2D4BDB6AAB423DD900242B4AEF
:10543000D2F80031DB6A03EB830399000A44136B53
:10544000012B42D9012440E00124244B9B6A1B68B4
:1054500063B3224B9B6ADB68DE6873689D422AD384
:1054600006F104084046FFF70AFEB36A1BB106F1D5
:105470001800FFF704FEF36A01229A40174FD7F88D
:105480000C110A43C7F80C2107F1300003EB83032A
:105490009A0041461044FFF7CCFDF26AD7F800317C
:1054A000DB6A9A42D0D2D0E70024CEE70B4B4FF014
:1054B000FF32DA62BBE7094AD362B8E7074AD2F89B
:1054C00024310133C2F824310024044BD3F82831AD
:1054D00003B101242046BDE8F08100BF2C0000206C
:1054E000394BD3F8183143B94FF0500383F3118887
:1054F000BFF36F8FBFF34F8FFEE770B500F072F907
:10550000314BD3F81821013AC3F81821D3F81831D8
:10551000002B54D12C4BD3F8FC3023B9002400F0DD
:1055200083F9204670BD0024274B5B692BB3264DC1
:105530002B6ADC6804F11800FFF7A1FD261D304638
:10554000FFF79DFDE36A01229A40D5F80C110A434A
:10555000C5F80C2105F1300003EB83039A003146B6
:105560001044FFF766FDE26AD5F80031DB6A9A4223
:10557000DAD30122C5F82821D6E70CB1FFF792FD56
:10558000114BD3F8244164B1FFF724FF18B10E4B3F
:105590000122C3F82821013CF6D10B4B0022C3F8AD
:1055A0002421094BD3F828315BB1084B4FF08052CE
:1055B0001A60BFF34F8FBFF36F8F0124AFE7002452
:1055C000ADE70024ABE700BF2C00002004ED00E0B5
:1055D00010B5B0B104460F4BD3F8183143B14FF0BA
:1055E000500383F31188BFF36F8FBFF34F8FFEE734
:1055F000FFF7E6FE00212046FFF732FEFFF770FFBF
:1056000038B9054B4FF080521A60BFF34F8FBFF38C
:105610006F8F10BD2C00002004ED00E038B5134B57
:10562000D3F814310BB3FFF7CBFE104BD3F8E440A3
:10563000FFF756FF002CF2D000F0D4F80B4CD4F852
:10564000F030DD68281DFFF71AFDD4F8FC30013B6F
:10565000C4F8FC30D4F81431013BC4F8143100F024
:10566000E3F82846FFF730FDD9E738BD2C000020CD
:1056700008B5FFF7D3FF064B1B6B012BF9D9054B80
:105680004FF080521A60BFF34F8FBFF36F8FF0E778
:105690002C00002004ED00E0224BD3F8183123B198
:1056A000204B0122C3F8282170471E4A0023C2F86C
:1056B0002831D2F80C31B3FA83F3DBB2C3F11F0304
:1056C00003EB830081000A44126B42B94FF0500390
:1056D00083F31188BFF36F8FBFF34F8FFEE710B4D2
:1056E000104A9900CC18A0001044446B64684463CD
:1056F0003032194488000830024494420BD00949E2
:1057000003EB83039A000A44536BDB68C1F8003152
:105710005DF8044B704761680248142202FB0302E3
:105720005163ECE72C0000200B4B1B68B3F1FF3FEB
:1057300008D04FF0500383F31188BFF36F8FBFF38E
:105740004F8FFEE74FF0500383F31188BFF36F8F45
:10575000BFF34F8FFEE700BF080000200648006837
:10576000006880F3088862B661B6BFF34F8FBFF35D
:105770006F8F00DF00BF000008ED00E0DFF80C00D5
:10578000016841F4700101607047000088ED00E09D
:105790004FF0807340F8043C21F0010140F8081CF0
:1057A000054B40F80C3C40F8202C6FF0020340F809
:1057B000243C4438704700BF29570008000000000F
:1057C000074B19680868B0E8F04F80F30988BFF309
:1057D0006F8F4FF0000080F311887047AFF30080A7
:1057E0002C0100204FF0500383F31188BFF36F8F1B
:1057F000BFF34F8F0A4A136801331360012B00D0A7
:105800007047084B1B6813F0FF0FF9D04FF050039F
:1058100083F31188BFF36F8FBFF34F8FFEE700BF95
:105820000800002004ED00E0094B1B6843B94FF06D
:10583000500383F31188BFF36F8FBFF34F8FFEE7E1
:10584000013B034A13600BB983F31188704700BF13
:105850000800002000000000000000000000000020
:10586000EFF30980BFF36F8F154B1A681EF0100F0E
:1058700008BF20ED108A20E9F04F10604DF8043D7C
:105880004FF0500080F31188BFF34F8FBFF36F8F3D
:10589000FFF702FF4FF0000080F3118808BC196881
:1058A0000868B0E8F04F1EF0100F08BFB0EC108A87
:1058B00080F30988BFF36F8F704700BFAFF300809C
:1058C0002C01002008B54FF0500383F31188BFF37B
:1058D0006F8FBFF34F8FFFF77DFD18B1034B4FF074
:1058E00080521A60002383F3118808BD04ED00E0A4
:1058F000064B1B68064AA2FB03239B09013B054A92
:105900001360054B07221A60704700BF0C0000208F
:10591000D34D621014E000E010E000E0314B1A6853
:10592000314B9A420DD02F4B1A68304B9A4211D10D
:105930004FF0500383F31188BFF36F8FBFF34F8F86
:10594000FEE74FF0500383F31188BFF36F8FBFF36F
:105950004F8FFEE700B583B0254B1A78D2B2019283
:10596000FF221A701B78DBB28DF803309DF80330EC
:1059700003F050031F4A1370072353609DF8033050
:1059800013F0800F0AD01B4A5368013B53609DF807
:1059900003305B00DBB28DF80330EFE7154A536844
:1059A0001B0203F4E0635360019BDBB2104A1370E7
:1059B000114B1A6842F470021A601A6842F0704281
:1059C0001A60FFF795FF0D4B00221A60FFF7D6FE15
:1059D0000B4A136843F040431360FFF7BFFEFFF725
:1059E000A3FE00BF00ED00E071C20F4170C20F4185
:1059F00000E400E05801002020ED00E00800002055
:105A000034EF00E0104A12F0070F1AD0D11D21F038
:105A10000701C1F5705313440A460C490A6000207F
:105A200048601344083B23F007038B6058601860FC
:105A3000981A50601360C86008614FF000434B61D2
:105A400070474FF47053E8E77801002060010020B0
:105A500010B4134B1A6882421BD359685C188442F5
:105A600003D1406801445960184641684418A24275
:105A700013D10B4CA468A2420DD05268114441606E
:105A80001A6812680260984200D018605DF8044BF2
:105A900070471346DEE70460F5E70260F3E700BFF6
:105AA0006001002070B50446FFF78AFC394B9B6803
:105AB000BBB1384B5B691C4262D1ACB1083414F005
:105AC000070F11D024F00704083404F007035BB17A
:105AD0004FF0500383F31188BFF36F8FBFF34F8FE5
