:020000040800F2
:10000000000002208D5600080D5600080F5600080B
:10001000115600081356000815560008000000008D
:100020000000000000000000000000004146000841
:100030001756000800000000E146000819560008A5
:10004000DD560008DD560008DD560008DD560008C4
:10005000DD560008DD560008DD560008014D000899
:10006000ED4F0008DD560008154D0008DD5600086C
:10007000DD560008DD560008DD560008DD56000894
:10008000DD560008DD560008DD56000800000000BF
:10009000000000000000000000000000DD56000825
:1000A000DD560008DD56000821560008DD56000820
:1000B000DD560008DD560008DD560008DD56000854
:1000C000DD560008DD560008DD560008DD56000844
:1000D000DD560008DD560008DD560008000000006F
:1000E000DD560008DD560008DD560008000000005F
:1000F000000000000000000000000000DD560008C5
:1001000000000000DD560008DD560008DD5600083E
:1001100000000000000000000000000000000000DF
:10012000DD560008DD560008DD560008DD560008E3
:10013000DD56000800000000000000000000000084
:100140000000000000000000000000003156000820
:10015000DD560008DD560008DD560008DD560008B3
:10016000DD560008DD560008000000000000000019
:10017000000000000000000000000000000000007F
:1001800000000000DD560008000000000000000034
:08019000DD560008DD560008F1
:1001A00010B5054C237833B9044B13B10448AFF3B1
:1001B00000800123237010BD10000020000000000B
:1001C0002857000808B5034B1BB103490348AFF398
:1001D000008008BD0000000014000020285700081F
:1001E00081F0004102E000BF83F0004330B54FEAE8
:1001F00041044FEA430594EA050F08BF90EA020F55
:100200001FBF54EA000C55EA020C7FEA645C7FEAE7
:10021000655C00F0E2804FEA5454D4EB5555B8BF0A
:100220006D420CDD2C4480EA020281EA030382EA7B
:10023000000083EA010180EA020281EA0303362D0D
:1002400088BF30BD11F0004F4FEA01314FF4801CE0
:100250004CEA113102D0404261EB410113F0004FF2
:100260004FEA03334CEA133302D0524263EB4303A9
:1002700094EA050F00F0A780A4F10104D5F1200E47
:100280000DDB02FA0EFC22FA05F2801841F10001A2
:1002900003FA0EF2801843FA05F359410EE0A5F176
:1002A00020050EF1200E012A03FA0EFC28BF4CF0A7
:1002B000020C43FA05F3C01851EBE37101F000455D
:1002C00007D54FF0000EDCF1000C7EEB00006EEB6A
:1002D0000101B1F5801F1BD3B1F5001F0CD34908F4
:1002E0005FEA30004FEA3C0C04F101044FEA44524B
:1002F00012F5800F80F09A80BCF1004F08BF5FEAD2
:10030000500C50F1000041EB045141EA050130BDB1
:100310005FEA4C0C404141EB010111F4801FA4F154
:100320000104E9D191F0000F04BF01460020B1FAA9
:1003300081F308BF2033A3F10B03B3F120020CDAE1
:100340000C3208DD02F1140CC2F10C0201FA0CF0BF
:1003500021FA02F10CE002F11402D8BFC2F1200C24
:1003600001FA02F120FA0CFCDCBF41EA0C019040DA
:10037000E41AA2BF01EB0451294330BD6FEA040423
:100380001F3C1CDA0C340EDC04F11404C4F120020E
:1003900020FA04F001FA02F340EA030021FA04F320
:1003A00045EA030130BDC4F10C04C4F1200220FA77
:1003B00002F001FA04F340EA0300294630BD21FAB5
:1003C00004F0294630BD94F0000F83F4801306BF7B
:1003D00081F480110134013D4EE77FEA645C18BF6F
:1003E0007FEA655C29D094EA050F08BF90EA020F06
:1003F00005D054EA000C04BF1946104630BD91EAFE
:10040000030F1EBF0021002030BD5FEA545C05D100
:100410004000494128BF41F0004130BD14F580043F
:100420003CBF01F5801130BD01F0004545F0FE41B3
:1004300041F470014FF0000030BD7FEA645C1ABFE8
:10044000194610467FEA655C1CBF0B46024650EA1F
:10045000013406BF52EA033591EA030F41F400214B
:1004600030BD00BF90F0000F04BF0021704730B5D1
:100470004FF4806404F132044FF000054FF00001A6
:1004800050E700BF90F0000F04BF0021704730B567
:100490004FF4806404F1320410F0004548BF40423C
:1004A0004FF000013EE700BF42004FEAE2014FEA91
:1004B00031014FEA02701FBF12F07F4393F07F4F6C
:1004C00081F06051704732F07F4208BF704793F06F
:1004D0007F4F04BF41F40021704730B54FF4607482
:1004E00001F0004521F000411CE700BF50EA010285
:1004F00008BF704730B54FF000050AE050EA01022E
:1005000008BF704730B511F0004502D5404261EB9D
:1005100041014FF4806404F132045FEA915C3FF4DE
:10052000D8AE4FF003025FEADC0C18BF03325FEA7B
:10053000DC0C18BF033202EBDC02C2F1200300FA2C
:1005400003FC20FA02F001FA03FE40EA0E0021FA51
:1005500002F11444BDE600BF70B54FF0FF0C4CF43F
:10056000E06C1CEA11541DBF1CEA135594EA0C0FF1
:1005700095EA0C0F00F0DEF82C4481EA030621EA2C
:100580004C5123EA4C5350EA013518BF52EA033567
:1005900041F4801143F4801338D0A0FB02CE4FF019
:1005A0000005E1FB02E506F00042E0FB03E54FF049
:1005B0000006E1FB03569CF0000F18BF4EF0010E41
:1005C000A4F1FF04B6F5007F64F5407404D25FEA3D
:1005D0004E0E6D4146EB060642EAC62141EA5551F0
:1005E0004FEAC52040EA5E504FEACE2EB4F1FD0C32
:1005F00088BFBCF5E06F1ED8BEF1004F08BF5FEAB0
:10060000500E50F1000041EB045170BD06F0004661
:1006100046EA010140EA020081EA0301B4EB5C040E
:10062000C2BFD4EB0C0541EA045170BD41F4801106
:100630004FF0000E013C00F3AB8014F1360FDEBF2B
:10064000002001F0004170BDC4F10004203C35DA07
:100650000C341BDC04F11404C4F1200500FA05F38A
:1006600020FA04F001FA05F240EA020001F000422B
:1006700021F0004110EBD37021FA04F642EB0601A1
:100680005EEA430E08BF20EAD37070BDC4F10C04CB
:10069000C4F1200500FA04F320FA05F001FA04F28F
:1006A00040EA020001F0004110EBD37041F100017B
:1006B0005EEA430E08BF20EAD37070BDC4F1200586
:1006C00000FA05F24EEA020E20FA04F301FA05F2EE
:1006D00043EA020321FA04F001F0004121FA04F296
:1006E00020EA020000EBD3705EEA430E08BF20EA66
:1006F000D37070BD94F0000F0FD101F000464000A0
:1007000041EB010111F4801F08BF013CF7D041EA21
:10071000060195F0000F18BF704703F00046520025
:1007200043EB030313F4801F08BF013DF7D043EAF6
:100730000603704794EA0C0F0CEA135518BF95EAAC
:100740000C0F0CD050EA410618BF52EA4306D1D133
:1007500081EA030101F000414FF0000070BD50EA52
:10076000410606BF1046194652EA430619D094EADC
:100770000C0F02D150EA013613D195EA0C0F05D1C6
:1007800052EA03361CBF104619460AD181EA03011A
:1007900001F0004141F0FE4141F470014FF00000D2
:1007A00070BD41F0FE4141F4780170BD70B54FF06D
:1007B000FF0C4CF4E06C1CEA11541DBF1CEA1355ED
:1007C00094EA0C0F95EA0C0F00F0A7F8A4EB0504CF
:1007D00081EA030E52EA03354FEA013100F08880C6
:1007E0004FEA03334FF0805545EA131343EA12638F
:1007F0004FEA022245EA111545EA10654FEA002644
:100800000EF000419D4208BF964244F1FD0404F5FC
:10081000407402D25B084FEA3202B61A65EB030558
:100820005B084FEA32024FF480104FF4002CB6EB15
:10083000020E75EB030E22BFB61A754640EA0C0095
:100840005B084FEA3202B6EB020E75EB030E22BFD5
:10085000B61A754640EA5C005B084FEA3202B6EB16
:10086000020E75EB030E22BFB61A754640EA9C00D5
:100870005B084FEA3202B6EB020E75EB030E22BFA5
:10088000B61A754640EADC0055EA060E18D04FEA63
:10089000051545EA16754FEA06164FEAC30343EA03
:1008A00052734FEAC2025FEA1C1CC0D111F4801FD0
:1008B0000BD141EA00014FF000004FF0004CB6E7C9
:1008C00011F4801F04BF01430020B4F1FD0C88BF68
:1008D000BCF5E06F3FF6AFAEB5EB030C04BFB6EB73
:1008E000020C5FEA500C50F1000041EB045170BD66
:1008F0000EF0004E4EEA113114EB5C04C2BFD4EB93
:100900000C0541EA045170BD41F480114FF0000E16
:10091000013C90E645EA060E8DE60CEA135594EA92
:100920000C0F08BF95EA0C0F3FF43BAF94EA0C0F95
:100930000AD150EA01347FF434AF95EA0C0F7FF40A
:1009400025AF104619462CE795EA0C0F06D152EA5E
:1009500003353FF4FDAE1046194622E750EA410642
:1009600018BF52EA43067FF4C5AE50EA41047FF453
:100970000DAF52EA43057FF4EBAE12E74FEA4102B6
:10098000B2F1E04324BFB3F5001CDCF1FE5C0DD9ED
:1009900001F0004C4FEAC0024CEA5070B2F1004F37
:1009A00040EB830008BF20F00100704711F0804F3A
:1009B00021D113F13872BCBF01F00040704741F4FF
:1009C00080114FEA5252C2F11802C2F1200C10FA03
:1009D0000CF320FA02F018BF40F001004FEAC123E7
:1009E0004FEAD32303FA0CFC40EA0C0023FA02F38B
:1009F0004FEA4303CCE77FEA625307D150EA013361
:100A00001EBF4FF0FE4040F44000704701F0004030
:100A100040F0FE4040F40000704700BF53B94AB9AF
:100A2000002908BF00281CBF4FF0FF314FF0FF30F6
:100A300000F072B9ADF1080C6DE904CE00F006F8D3
:100A4000DDF804E0DDE9022304B070472DE9F0474A
:100A5000089E04468846002B4BD18A42154667D92A
:100A6000B2FA82F24AB1C2F1200701FA02F320FA87
:100A700007F7954047EA030894404FEA154E230CC8
:100A8000B8FBFEF71FFA85FC0EFB178843EA084304
:100A900007FB0CF1994209D9EB1807F1FF3080F000
:100AA0001B81994240F21881023F2B445B1AA4B289
:100AB000B3FBFEF00EFB103344EA034400FB0CFCD6
:100AC000A44509D92C1900F1FF3380F00781A44512
:100AD00040F2048102382C4440EA0740A4EB0C04A5
:100AE00000271EB1D4400023C6E900433946BDE8C3
:100AF000F0878B4209D9002E00F0EB800027C6E971
:100B0000000138463946BDE8F087B3FA83F7002F75
:100B100047D18B4202D3824200F2FA80841A61EB01
:100B2000030301209846002EE0D0C6E90048DDE727
:100B300002B9FFDEB2FA82F2002A40F08F80491B30
:100B40004FEA154E1FFA85F80127B1FBFEFC230C76
:100B50000EFB1C1143EA014308FB0CF1994207D933
:100B6000EB180CF1FF3002D2994200F2CD8084469E
:100B7000591AA3B2B1FBFEF00EFB101443EA044471
:100B800008FB00F8A04507D92C1900F1FF3302D269
:100B9000A04500F2B6801846A4EB080440EA0C40D9
:100BA0009FE7C7F1200CBB4022FA0CFE4EEA030E71
:100BB00001FA07F420FA0CF521FA0CF34FEA1E486B
:100BC0002543B3FBF8F92C0C08FB19331FFA8EFAF6
:100BD00044EA034309FB0AF49C4202FA07F200FAD2
:100BE00007F10BD91EEB030309F1FF3080F087807A
:100BF0009C4240F28480A9F1020973441B1BADB2F0
:100C0000B3FBF8F008FB103345EA034400FB0AFA93
:100C1000A24508D91EEB040400F1FF336BD2A245B4
:100C200069D90238744440EA0940A0FB0289A4EB68
:100C30000A044C45C2464B4654D351D0002E69D0CD
:100C4000B1EB0A0564EB030404FA0CFCFD40FC4024
:100C50004CEA0505C6E90054002747E7C2F1200326
:100C600020FA03F7954001FA02F021FA03F34FEA64
:100C7000154E3843010CB3FBFEF71FFA85F80EFB47
:100C8000173341EA034107FB08F38B4204FA02F4ED
:100C900007D9691807F1FF3C2FD28B422DD9023FAB
:100CA0002944CB1A81B2B3FBFEF00EFB103341EAAC
:100CB000034100FB08F38B4207D9691800F1FF3CA0
:100CC00017D28B4215D902382944C91A40EA07477E
:100CD0003BE73746304609E70746E7E61846FBE6B6
:100CE0004145ABD2B8EB020A69EB0E02013813465C
:100CF000A4E76046E9E7184695E76746D1E78146ED
:100D00007CE702382C4447E7ACF1020C2B442FE778
:100D1000384608E73746E9E6704700BF08B50B4B91
:100D20001A6842F400721A601A6842F480621A600B
:100D30001A6842F480721A60032000F02FF8002035
:100D400004F028FC04F0E0FA002008BD003C02405A
:100D5000034A1168034B1B780B441360704700BFB4
:100D6000783D002000000020014B1868704700BF4C
:100D7000783D002038B50446FFF7F6FF0546B4F18C
:100D8000FF3F02D0044B1B781C44FFF7EDFF401BD4
:100D9000A042FAD338BD00BF00000020074AD36844
:100DA00023F4E0631B041B0C000200F4E060184312
:100DB00040F0BF6040F40030D060704700ED00E0CC
:100DC00030B4174BDB68C3F30223C3F10704042CD0
:100DD00028BF04241D1D062D18D9033B4FF0FF35F5
:100DE00005FA04F421EA0401994005FA03F322EA22
:100DF0000303194300280BDB0901C9B200F160406D
:100E000000F5614080F8001330BC70470023E5E72F
:100E100000F00F000901C9B2024B1954F4E700BFFA
:100E200000ED00E014ED00E000F01F024009012396
:100E30009340024A42F82030704700BF00E100E0D2
:100E40000138B0F1807F0AD2064B5860064AF02183
:100E500082F823100020986007221A607047012052
:100E6000704700BF10E000E000ED00E0042805D06E
:100E7000054A136823F0040313607047024A13689D
:100E800043F004031360704710E000E000230F2BD1
:100E900000F2C580F0B482B039E0042200E0002204
:100EA000B2403A4302345E4E46F824205D4A14684C
:100EB000EA4302EA04064F6817F4803F01D045EA8E
:100EC0000406584C2660646802EA04064F6817F46A
:100ED000003F01D045EA0406524C6660A46802EA6D
:100EE00004064F6817F4801F01D045EA04064D4CF4
:100EF000A660E46822404E6816F4001F01D045EA5F
:100F00000402484CE26001330F2B00F2858001227D
:100F10009A400C6804EA0205AA42F4D14C68022CFB
:100F200001D0122C10D1DE08083650F826C003F08C
:100F30000704A7000F24BC402CEA040C0C69BC4039
:100F400044EA0C0440F8264004685F000326BE40D3
:100F5000F64306EA040C4C6804F00304BC4044EA7F
:100F60000C0404604C6804F1FF3CBCF1010F03D990
:100F7000112C01D0122C10D1846806EA040CCC6824
:100F8000BC4044EA0C048460446824EA02024C68D1
:100F9000C4F300149C4014434460C26816408A683D
:100FA000BA403243C2604A6812F0805FABD0002280
:100FB00001921D4A546C44F480445464526C02F40F
:100FC00080420192019A9C08A61C154A52F826708C
:100FD00003F0030296000F22B24027EA0207134AE9
:100FE00090423FF45CAF02F5806290420ED002F571
:100FF000806290420CD002F5806290420AD002F5E5
:10100000806290423FF449AF072249E7012247E757
:10101000022245E7032243E702B0F0BC7047704765
:1010200000380140003C014000380240000002400E
:1010300012B909048161704781617047F8B506688B
:10104000346A04F00F07C4F34343C4F30A14022BB9
:101050002ED16CB307EB8702D3000344596C39B32C
:1010600005462246304602F0EBFCBA003A44D30073
:101070002B445A6C22445A64DA6C2244DA6406EB3C
:101080004713D3F810150B4A0A408AB1D3F800254C
:1010900022F0804242F00042C3F80025BB00D9197B
:1010A000CA002A4492F8503083F0010382F850308D
:1010B000F8BD00BF0000F81F002837D0F0B58BB096
:1010C0000646032380F8913204F026FA306802F0D5
:1010D00074FC344654F810CB6D460FCC0FC50FCCC2
:1010E0000FC594E8030085E80300371D97E80E005C
:1010F000604602F024FC0121306802F064FC3446B2
:1011000054F810CB6D460FCC0FC50FCC0FC594E82B
:10111000030085E8030097E80E00604602F0CAFC71
:10112000012386F8913200200BB0F0BD01207047FA
:101130007047704730B583B005460468D4F8403432
:101140000193D4F840340093009B23F02E030093C6
:10115000019B13F0020F07D0019B13F0010F25D163
:10116000009B43F002030093019B13F0080F10D083
:10117000009B43F008030093019B13F0040F31D050
:10118000AB69022B19D0EB68032B26D02846FFF75A
:10119000D0FF019B13F0200F03D0009B43F02003EE
:1011A0000093009BC4F8403403B030BDA36923F022
:1011B0000053A361FFF7BDFFD2E7019B03F4C023F7
:1011C000B3F5802F04D00121286802F0E9FCDDE7A7
:1011D0000221286802F0E4FCD8E74EF66022C4F849
:1011E0000424D3E7D4F8403423F02E03C4F8403469
:1011F0002A68936943F000539361CAE770477047C8
:10120000F8B506460D46076807EB411707F5A064D9
:10121000A36813F0040F41D00423A360E36843F0F4
:101220000203E360A36813F4007F6DD1A36813F099
:10123000010F00F08A80336963B1AB005919CA000D
:101240003244916C2269C2F31202891A2B44DA00EB
:101250003244D164AA002A44D3003344012283F8E3
:101260005D2000219965A26093F83F30002B57D094
:10127000022B55D0032B5DD1D7F8003543F0005336
:10128000C7F8003505EB8502D3003344012283F80B
:101290005C2029463046FFF7B2FF4BE0A36813F00D
:1012A000200F02D02023A360BCE7A36813F0080F2F
:1012B00017D1A36813F4806FB4D0E36843F002033E
:1012C000E360006802F0BCFC1023A36005EB85021C
:1012D000D3003344082283F85D204FF48063A36079
:1012E000A0E7E36843F00203E36001EB8102D3006F
:1012F0000344052283F85D201023A3600823A36024
:10130000006802F09DFC8DE7E36843F00203E360B0
:101310002946306802F094FC4FF40073A36013E098
:10132000E36843F00203E3602946306802F088FC7A
:101330001023A360AB005919CA00324492F8503010
:1013400083F0010382F85030F8BDA36813F0020F58
:1013500050D0E36823F00203E36005EB8502D3007D
:10136000334493F85D30012B20D0052B32D0062B6F
:1013700001D0082B21D1AA002A44D30033449A6D0E
:10138000511C9965032A2DD9AA002A44D30033445D
:1013900000229A65042283F85C20D7F8003523F0F8
:1013A000804343F00043C7F8003506E005EB8502B3
:1013B000D3003344012283F85C200223A36005EBB1
:1013C0008502D300334493F85C2029463046FFF76A
:1013D00016FFB9E705EB8502D3003344052283F8F5
:1013E0005C20EAE705EB8502D3003344022283F850
:1013F0005C20D2E7A36813F0800F26D1A36813F016
:10140000100FA1D005EB8502D300334493F83F3091
:10141000032B32D0AB005919CA003244032182F8A1
:101420005D101022A2601D4405FA01F31E4496F8D7
:101430003F300BB1022B87D1D7F8003523F0804322
:1014400043F00043C7F800357EE7E36843F002034A
:10145000E360AB005919CA003244916D01319165C6
:101460002B44DA003244062382F85D302946306886
:1014700002F0E6FB8023A36066E7E36843F0020323
:10148000E3602946306802F0DBFBC3E7F8B5046887
:1014900004EB411404F5A064A36813F0040F24D1F5
:1014A0000E460546A36813F0200F25D02023A36025
:1014B00001EB8102D300034493F83D30012B1AD194
:1014C0008F007A18D3000344042283F85D20E36878
:1014D00043F00203E360006802F0B2FBB919C800F0
:1014E0002844022380F85C3005E00423A360E3680D
:1014F00043F00203E360F8BDA36813F0400F4CD142
:10150000A36813F4007F5FD1A36813F0010F66D1C5
:10151000A36813F0080F77D1A36813F0100F40F001
:101520008480A36813F0800F40F09580A36813F4C3
:10153000806F40F0A180A36813F0020FDBD0E36856
:1015400023F00203E36001EB8102D300034493F82C
:101550005D30012B00F0A480032B00F0C480042B2D
:1015600000F0C980052B00F0D180062B02D0082B9B
:1015700040F0A180B2003244D3002B449A6D511C3C
:101580009965032A40F2CA80282303FB06530022F0
:101590009A65042283F85C208DE08B005918CA00FC
:1015A0000244042182F85D103344DA00024400232F
:1015B0009365E36843F00203E3603146006802F09C
:1015C0003FFB4023A36096E7E36843F00203E36038
:1015D000006802F035FB4FF40073A3608BE78F00C7
:1015E0007A18D300034400229A65E36843F00203AB
:1015F000E360006802F024FB0123A360B919C8006E
:10160000284480F85D3076E70823A360E36843F060
:101610000203E360006802F013FB06EB8601C800DA
:101620002844052380F85D3065E78F007A18D300E1
:10163000034400229A65E36843F00203E360006814
:1016400002F0FEFAB919C8002844032380F85D307F
:101650001023A3604FE7E36843F00203E3600068F0
:1016600002F0EEFA06EB8601CB002B44062283F84B
:101670005D208023A3603EE7E36843F00203E3605C
:10168000006802F0DDFA1023A3604FF48063A360CA
:1016900006EB8601CB002B44082283F85D202AE765
:1016A0008A000A44D3000344012283F85C2093F8A3
:1016B0003F30022B0CD00223A36006EB8602D3003E
:1016C0002B4493F85C2031462846FFF798FD12E73B
:1016D0008A000A44D300034493F8512082F00102A7
:1016E00083F85120E7E701EB8102D3000344022293
:1016F00083F85C20DFE78A000A44D3000344022217
:1017000083F85C20002283F83D20D4E701EB8102BE
:10171000D3000344052283F85C20CCE7282303FB95
:101720000653022283F85C20C5E7F8B50446056835
:10173000284602F09DF9012800D0F8BD206802F08B
:1017400093F90028F9D0206802F08EF910F4001FF8
:1017500003D023684FF400125A61206802F084F924
:1017600010F4801F03D023684FF480125A61206860
:1017700002F07AF910F0806F03D023684FF0806296
:101780005A61206802F070F910F0020F02D023684D
:1017900002225A61206802F067F910F0005F25D13B
:1017A000206802F061F910F0807F31D1206802F0EA
:1017B0005BF910F0080F2FD1206802F055F910F0F6
:1017C000007F30D1206802F04FF910F0100FB4D034
:1017D0002268936923F0100393612046FFF72EFCE3
:1017E0002268936943F010039361A6E7D5F840346B
:1017F00023F02E03C5F840342046FFF7FFFC0121FB
:10180000206802F0CDF923684FF000525A61C7E713
:101810002046FFF78FFCC9E72046FFF789FC2368C5
:1018200008225A61C8E7206802F0FBF90746002643
:1018300004E0F1B22046FFF729FE0136A368B34267
:101840000FD90123B3403B42F7D005EB4613D3F841
:10185000003513F4004FECD0F1B22046FFF7D0FC76
:10186000EBE723684FF000725A61ABE703685A69EF
:1018700012F4806F0DD06FF480625A610423036408
:1018800000230363202280F83D2080F83C300120B3
:10189000704700207047F8B506460C4617461D46AF
:1018A0001EE02DB1FFF760FA069BC01AA84217D9B7
:1018B00000233363202286F83D2086F83E3086F8E8
:1018C0003C3003201AE033685B6924EA03039BB2CF
:1018D000B3FA83F35B099F420FD1B5F1FF3FE0D12B
:1018E000C4F30743012BEED033689B6924EA03035A
:1018F0009BB2B3FA83F35B09EDE70020F8BDF8B5BE
:1019000004460D4616461F4632E01A6842F400723D
:101910001A6023686FF480625A61042323640023F1
:101920002363202284F83D2084F83C3001202DE000
:1019300026B1FFF719FAC01BB04219D9002323635F
:10194000202284F83D2084F83C3003201EE02368E8
:101950005B6925EA03039BB2003318BF0123A3B1DF
:1019600023685A6912F4806FCFD1B6F1FF3FDFD1FF
:10197000C5F30743012BEAD023689B6925EA0303DB
:101980009BB2003318BF0123E9E70020F8BD000037
:10199000F0B583B004460D4616461F46C36A042BB5
:1019A0000DD0012B0BD013F5803F08D0036B122B09
:1019B0000AD10268136843F48073136004E022685C
:1019C000136843F4807313600097334600224FF08E
:1019D00001112046FFF75FFF58BB2369B3F5804F25
:1019E00010D1236805F0FE051D613B4632461549BE
:1019F0002046FFF784FF0346E0B1236C042B1ED181
:101A0000012317E0EB11226803F0060343F0F00313
:101A100013613B4632460C492046FFF770FF20B168
:101A2000236C042B09D1012304E02368EDB21D616E
:101A3000DBE70323184603B0F0BD0323FAE70323D3
:101A4000F8E700BF02000100080001002DE9F041A5
:101A500084B004460D4616461F46C26A01680B68EC
:101A600043F480630B60042A0DD0012A0BD012F5D9
:101A7000803F08D0036B112B0AD10268136843F42E
:101A80008073136004E02268136843F4807313606A
:101A90000097334600224FF001112046FFF7FBFE6E
:101AA000002852D12369B3F5804F12D1236845F045
:101AB0000105EDB21D613B4632462A492046FFF73B
:101AC0001EFF0346002841D0236C042B48D101237C
:101AD0003CE04FEAE51808F00608236848F0F002F9
:101AE0001A613B46324620492046FFF708FF20B1E5
:101AF000236C042B2ED1012328E02368EDB21D6155
:101B00003B46324617492046FFF7F9FE20B1236CC9
:101B1000042B21D1012319E0002203922368596983
:101B20000391996903910399196841F480711960CF
:101B3000009733464FF001112046FFF7ACFE68B91D
:101B4000226848F0F1031361B5E70323184604B097
:101B5000BDE8F0810323F9E70323F7E70323F5E763
:101B60000323F3E7020001000800010070B50446FA
:101B70000D46164623685B6913F0800F19D1204685
:101B8000FFF774FEB8B9B5F1FF3FF3D025B1FFF709
:101B9000EBF8801BA842EDD9236C43F020032364AB
:101BA00000232363202284F83D2084F83C30032066
:101BB00000E0002070BD0120FCE770B504460D4632
:101BC000164623685B6913F0040F19D12046FFF70E
:101BD0004DFEB8B9B5F1FF3FF3D025B1FFF7C4F81A
:101BE000801BA842EDD9236C43F02003236400231B
:101BF0002363202284F83D2084F83C30032000E059
:101C0000002070BD0120FCE770B505460C46164665
:101C10002B685A6912F0400F22D15A6912F0100F46
:101C200011D124B1FFF7A0F8801BA042F0D92B6C92
:101C300043F020032B64202385F83D30002385F8F2
:101C40003C30032070BD6FF010025A6100232B64FA
:101C50002B63202285F83D2085F83C300120F1E7F8
:101C60000020EFE7002800F0828010B5044690F8CD
:101C70003D30002B41D0242384F83D302268136886
:101C800023F00103136001F0B3F83A4BA3FB0023E8
:101C90009B0C226853606168374A914232D8013305
:101CA000226813626368344A934235D85B00B0FB04
:101CB000F3F0C0F30B03032B00D804202368D86192
:101CC000E369216A22680B4313602369E168226893
:101CD0000B4393606369A16922680B43D360226858
:101CE000136843F00103136000202064202384F86C
:101CF0003D30206384F83E0010BD80F83C3003F096
:101D00004DFBB8E74FF4967202FB03F31B4AA2FBAC
:101D100003239B090133C3E7A16889B903EB43029D
:101D2000B0FBF2F2C2F30B02B2FA82F25209E2B94C
:101D300091B903EB4303B0FBF3F040F40040BDE77F
:101D400003EB830202EB8202B0FBF2F2C2F30B025E
:101D5000B2FA82F25209EAE703EB830303EB83034F
:101D6000B0FBF3F040F44040A8E70120A6E70120D3
:101D7000704700BF83DE1B43A0860100D34D621075
:101D80002DE9F04184B004460E4690461F46FEF70A
:101D9000EBFF94F83D30DBB2202B04D00226304616
:101DA00004B0BDE8F0810546009019230122544992
:101DB0002046FFF770FD002840F0998094F83C30F1
:101DC000012B00F09680012384F83C3023681A68C8
:101DD00012F0010F03D11A6842F001021A60226862
:101DE000136823F400631360212384F83D3010232B
:101DF00084F83E3000232364C4F824806785A3F56B
:101E00008033E362638D23852B460A9A3146204650
:101E1000FFF7BEFD064660B1236C042B04D10023FE
:101E200084F83C300126BAE7002384F83C300326CE
:101E3000B5E70023039323685A6903929B690393D0
:101E4000039B10E0236C042B55D12268136843F4E4
:101E5000007313600126A2E72A460A992046FFF77D
:101E6000ACFE00282BD1238D002B32D02A460A99B4
:101E70002046FFF77BFE0028E4D1636A5A1C6262A9
:101E800022681B781361638D013B9BB26385238DB0
:101E9000013B9BB223852268516911F0040FDBD00E
:101EA000002BD9D0636A591C61621B781361638D62
:101EB000013B9BB26385238D013B2385CCE7236CDB
:101EC000042B1AD12268136843F4007313600126AF
:101ED00065E72268136843F400731360202384F8D5
:101EE0003D30002384F83E3084F83C3057E702262A
:101EF00055E7022653E7032651E703264FE700BFC5
:101F0000020010002DE9F04186B004460E469046CE
:101F10001F46FEF729FF94F83D30DBB2202B04D09A
:101F20000226304606B0BDE8F08105460090192330
:101F300001228C492046FFF7AEFC002840F04B817F
:101F400094F83C30012B00F04881012384F83C30A8
:101F500023681A6812F0010F03D11A6842F00102D7
:101F60001A602268136823F400631360222384F844
:101F70003D30102384F83E3000232364C4F82480CD
:101F80006785A3F58033E362638D23852B460C9A26
:101F900031462046FFF75AFD064660B1236C042BFC
:101FA00004D1002384F83C300126BAE7002384F8EA
:101FB0003C300326B5E7238D5BB9029323685A6949
:101FC00002929A690292029A1A6842F400721A60A6
:101FD0007AE0012B0FD0022B1FD02268136843F444
:101FE000806313600023059323685A6905929B69F7
:101FF0000593059B68E02268136823F480631360EF
:102000000023039323685A6903929A690392039AFF
:102010001A6842F400721A6056E02268136823F4CA
:10202000806313602268136843F400631360002325
:10203000049323685A6904929B690493049B43E0C8
:102040002A460C992046FFF7DFFD68B923681A6914
:10205000636A591C61621A70238D013B2385638D6D
:10206000013B9BB263852FE0236C202B01D001261E
:1020700057E7032655E700950C9B00223A49204676
:10208000FFF709FC002840F0AA802268136843F497
:102090000073136023681A69636A591C61621A70BD
:1020A000238D013B2385638D013B9BB263852368B0
:1020B0001A69636A591C61621A70238D013B23857A
:1020C000638D013B9BB26385238D002B7AD0032B5C
:1020D0004CD8012BB4D0022BCDD000950C9B002204
:1020E00021492046FFF7D7FB00287AD122681368E0
:1020F00023F48063136023681A69636A591C616260
:102100001A70238D013B2385638D013B9BB2638550
:1021100000950C9B002214492046FFF7BCFB0028C9
:1021200061D12268136843F40073136023681A694D
:10213000636A591C61621A70238D013B2385638D8C
:10214000013B9BB2638523681A69636A591C61620B
:102150001A70238D013B2385638D013B9BB2638500
:10216000B2E700BF02001000040001002A460C99EB
:102170002046FFF749FDF0B923681A69636A591CC4
:1021800061621A70238D013B2385638D013B9BB2F5
:10219000638523685A6912F0040F95D01A69636A3F
:1021A000591C61621A70238D013B2385638D013BAD
:1021B0009BB2638588E7236C202B01D00126B0E613
:1021C0000326AEE6202384F83D30002384F83E3019
:1021D00084F83C30A5E60226A3E60226A1E6032603
:1021E0009FE603269DE603269BE600BF704708B5E1
:1021F000436A9A1C426202681B88D360438D013B8C
:102200009BB24385438D9BB203B108BD02685368FE
:1022100023F0A0031B041B0C5360012380F8413002
:10222000FFF7E4FFF1E7704708B50368DA68C36AAF
:10223000991CC1621A80438E013B9BB24386438E38
:102240009BB203B108BD0268536823F060031B040E
:102250001B0C5360012380F84130FFF7E4FFF1E7E6
:1022600070470000002800F0BB8070B504460225CE
:1022700080F841505B4B436303F0BAF82268D3699E
:1022800023F47B6323F00F03D36123681D6223686B
:10229000DD696369022B5BD0E368002B3ED020260A
:1022A000A368202B00D87600012000F097FE236958
:1022B000B3F5007F34D0B0FBF6F000EB80004300B4
:1022C0006269B3FBF2F30533474AA2FB0323DB0841
:1022D00003F001029B1AC3F34F0311029A1EFD2A59
:1022E00038D822690A43216813430B626268A168E7
:1022F000E068238B03439BB20B439BB213439BB217
:1023000043F400631D432368DD61236A012B2AD057
:1023100000206064012384F8413070BD1026BFE7BF
:10232000E36853B1B600B0FBF6F000EB8000430069
:102330006269B3FBF2F30533C6E7F600B0FBF6F0D3
:1023400000EB800043006269B3FBF2F30533BBE7A7
:102350000021C3E7636C43F0100363642046FFF77A
:102360007FFF0120D9E7214B63632268204B9A420B
:102370001ED04FF04022D36923F47B6323F00F0378
:10238000D36122681A4B9A4214D04FF040230222A4
:102390001A622268164B9A420FD04FF04022D06941
:1023A0006168B1F5007F0AD0C1B94FF4807608E0CA
:1023B000104AE0E7A3F58063E9E70E4AEFE74FF440
:1023C0008076A168E568238B2B439BB20B439BB2BD
:1023D000334343F400630343D36199E70026F0E7F6
:1023E00001207047F9230008CDCCCCCC152600087D
:1023F000003800400034004010B584B00446026844
:102400009368039390F84130DBB2042B06D094F824
:102410004130DBB2032B2ED004B010BD039B13F070
:10242000010F03D0536813F0400F21D1039B13F029
:10243000400FECD023685A6812F0200FE7D05A689A
:1024400022F060021204120C5A60002301932368E8
:10245000DA6801929B680193019B012384F8413063
:10246000636C43F0020363642046FFF7F9FECEE796
:10247000FFF7DAFEDAE7039B13F0020F04D02368BC
:102480005B6813F0800F1FD1039B13F0080FC3D0BC
:1024900023685A6812F0200FBED05A6822F0A002BA
:1024A0001204120C5A600023029323689B68029363
:1024B000029B012384F84130636C43F0040363649E
:1024C0002046FFF7CDFEA7E72046FFF790FEDBE7AB
:1024D0007047000008B5E9B9436A9A1C4262026875
:1024E0001B88D360438D013B9BB24385438D9BB2D8
:1024F0004BB90268536823F0A0031B041B0C536004
:10250000438E9BB203B108BD012380F84130FFF731
:10251000DFFFF8E7436A9A1C42621A880168134B8E
:1025200099421ED04FF04023DA60438D013B9BB2AD
:102530004385438D9BB2002BE5D102680B4B9A4239
:1025400012D04FF04022536823F0A0035360438E13
:102550009BB2002BD7D1012380F84130FFF7B8FFA1
:10256000D1E7A3F58063DFE7014AECE700380040DC
:102570000034004008B5E9B90368DA68C36A991CF9
:10258000C1621A80438E013B9BB24386438E9BB24D
:102590004BB90268536823F060031B041B0C5360A3
:1025A000438D9BB203B108BD012380F84130FFF792
:1025B0008FFFF8E70268154B9A4222D04FF0402374
:1025C000DA68C36A991CC1621A80438E013B9BB2D0
:1025D0004386438E9BB2002BE5D102680B4B9A4297
:1025E00012D04FF04022536823F060035360438DB4
:1025F0009BB2002BD7D1012380F84130FFF768FF51
:10260000D1E7A3F58063DBE7014AECE7003800403F
:102610000034004010B584B0044603689A68039201
:102620007C4A93425DD04FF040218A680292DA6979
:1026300002F44072B2F5007F04D0DA6912F4407FF0
:1026400040F08180039A12F0020F03D05B6813F010
:10265000800F48D1029B13F0010F09D022686D4B07
:102660009A4245D04FF040235B6813F0400F42D1AF
:10267000029B13F0400F09D02268664B9A423FD06C
:102680004FF040235A6812F0200F3CD1039B13F007
:10269000080F24D023685A6812F0200F1FD05A6800
:1026A00022F0A0021204120C5A602268594B9A427E
:1026B00047D04FF04022536823F06003536000235B
:1026C000019323689B680193019B012384F84130A7
:1026D000636C43F0040363642046FFF7C1FD04B05C
:1026E00010BD4D49A1E700212046FFF7F3FEB1E7F9
:1026F000A3F58063B8E701212046FFF73BFFB7E76A
:10270000A3F58063BEE75A6822F060025A6022682F
:10271000536823F0A0031B041B0C53600023009399
:102720002368DA6800929B680093009B012384F879
:102730004130636C43F0020363642046FFF790FD71
:10274000A4E7354AB7E7029B13F0020F03D04B68AA
:1027500013F0800F4FD1039B13F0010F04D02368B7
:102760005B6813F0400F4BD1039B13F0400F1ED05A
:1027700023685A6812F0200F19D05A6822F06002BC
:102780001204120C5A602268224B9A423DD04FF03C
:102790004022536823F0A0035360012384F84130A2
:1027A000636C43F0020363642046FFF759FD029B0C
:1027B00013F0080F93D02268164B9A4227D04FF09F
:1027C00040235A6812F0200F89D05A6822F0A002E4
:1027D0005A602268536823F060031B041B0C53608B
:1027E000012384F84130636C43F0040363642046A2
:1027F000FFF736FD73E701212046FFF76BFEAAE7DE
:1028000000212046FFF7B6FEAEE7034AC1E7A3F575
:102810008063D6E70038004000340040002800F014
:10282000BB8170B582B00446036813F0010F3BD042
:10283000A74B9B6803F00C03042B2CD0A44B9B6884
:1028400003F00C03082B21D06368B3F5803F4FD011
:10285000B3F5A02F52D09E4B1A6822F480321A6032
:102860001A6822F480221A606368002B50D0FEF7A9
:102870007BFA0546964B1B6813F4003F14D1FEF714
:1028800073FA401B6428F5D903208AE1904B5B68FA
:1028900013F4800FD8D08E4B1B6813F4003F03D085
:1028A0006368002B00F07A81236813F0020F55D083
:1028B000874B9B6813F00C0F3ED0854B9B6803F051
:1028C0000C03082B33D0E368002B68D0814B012226
:1028D0001A60FEF749FA05467D4B1B6813F0020F9C
:1028E00054D1FEF741FA401B0228F5D9032058E1E4
:1028F000774A136843F480331360B5E7744B1A6862
:1029000042F480221A601A6842F480321A60ABE7FF
:10291000FEF72AFA05466E4B1B6813F4003FC3D03E
:10292000FEF722FA401B6428F5D9032039E1684BF1
:102930005B6813F4800FC6D1654B1B6813F0020F60
:1029400004D0E368012B01D001202AE1604A13681A
:1029500023F0F803216943EAC1031360236813F0ED
:10296000080F40D0636963B35B4B01221A60FEF726
:10297000FBF90546564B5B6F13F0020F33D1FEF7A0
:10298000F3F9401B0228F5D903200AE1504A1368E5
:1029900023F0F803216943EAC1031360DEE74D4BDE
:1029A00000221A60FEF7E0F90546494B1B6813F058
:1029B000020FD3D0FEF7D8F9401B0228F5D9032027
:1029C000EFE0454B00221A60FEF7CEF90546404B7A
:1029D0005B6F13F0020F06D0FEF7C6F9401B02280A
:1029E000F5D90320DDE0236813F0040F79D0384BCC
:1029F0001B6C13F0805F33D100230193344B1A6CAE
:102A000042F080521A641B6C03F080530193019BC7
:102A10000125324B1B6813F4807F23D0A368012B60
:102A200034D0052B38D02A4B1A6F22F001021A67D6
:102A30001A6F22F004021A67A368002B36D0FEF743
:102A400093F90646224B1B6F13F0020F48D1FEF795
:102A50008BF9801B41F288339842F3D90320A0E020
:102A60000025D6E71D4A136843F480731360FEF710
:102A70007BF90646194B1B6813F4807FCED1FEF715
:102A800073F9801B0228F5D903208AE0104A136FDE
:102A900043F001031367CFE70D4B1A6F42F00402B6
:102AA0001A671A6F42F001021A67C5E7FEF75CF970
:102AB0000646074B1B6F13F0020F11D0FEF754F9B7
:102AC000801B41F288339842F3D9032069E000BFAC
:102AD0000038024000004742800E4742007000402C
:102AE000E5B9A369002B5BD0304A926802F00C0272
:102AF000082A58D0022B17D02D4B00221A60FEF75F
:102B000033F90446294B1B6813F0007F42D0FEF7CF
:102B10002BF9001B0228F5D9032042E0234A136C4D
:102B200023F080531364DCE7214B00221A60FEF788
:102B30001BF905461D4B1B6813F0007F06D0FEF7FE
:102B400013F9401B0228F5D903202AE0E369226A21
:102B50001343626A43EA8213A26A5208013A43EAC3
:102B60000243E26A43EA0263104A5360104B0122B7
:102B70001A60FEF7F9F804460C4B1B6813F0007F4F
:102B800006D1FEF7F1F8001B0228F5D9032008E072
:102B9000002006E0002004E001207047012000E052
:102BA000002002B070BD0120FBE700BF00380240EA
:102BB00060004742324B9B6803F00C03042B5CD04F
:102BC000082B01D02F4870472DE9F04B2C4B5A6849
:102BD00002F03F025B6813F4800F2BD0284B5B6838
:102BE000C3F388131E4600275C010025E41A65EB39
:102BF0000705A90141EA9461A001001B61EB0501F1
:102C0000CB0043EA5073C400A01943EB07014B0209
:102C100043EAD0534402204619460023FDF7FEFE46
:102C2000174B5B68C3F3014301335B00B0FBF3F068
:102C3000BDE8F08B124B5B68C3F388131E46002778
:102C40005C010025E41A65EB0705A90141EA9461DE
:102C5000A001001B61EB0501CB0043EA5073C400E7
:102C6000A01943EB07018B0243EA905384022046EC
:102C700019460023FDF7D2FED2E70348704700BF94
:102C8000003802400024F40000127A00002800F00E
:102C90009D8070B504464F4B1B6803F00F038B42B9
:102CA00009D2CBB24B4A1370136803F00F038B4267
:102CB00001D0012070BD236813F0020F17D013F06C
:102CC000040F04D0444A936843F4E05393602368AC
:102CD00013F0080F04D0404A936843F460439360B4
:102CE0003D4A936823F0F003A068034393600D46C8
:102CF000236813F0010F32D06368012B21D09A1E94
:102D0000012A25D9344A126812F0020F60D03249E4
:102D10008A6822F0030213438B60FEF725F806460B
:102D20002D4B9B6803F00C036268B3EB820F16D047
:102D3000FEF71AF8801B41F288339842F0D903203D
:102D4000B8E7254A126812F4003FE0D10120B1E74C
:102D5000214A126812F0007FD9D10120AAE71D4B49
:102D60001B6803F00F03AB4209D9EAB2194B1A7082
:102D70001B6803F00F03AB4201D001209AE72368E0
:102D800013F0040F06D0144A936823F4E053E1686B
:102D90000B439360236813F0080F07D00E4A936823
:102DA00023F46043216943EAC1039360FFF702FF04
:102DB000094B9B68C3F30313084AD35CD840084B04
:102DC0001860002002F0E6FB002073E70120704746
:102DD00001206FE7003C02400038024054570008D1
:102DE0000C000020014B1868704700BF0C00002049
:102DF00008B5FFF7F7FF044B9B68C3F38223034A30
:102E0000D35CD84008BD00BF0038024064570008BA
:102E100008B5FFF7E7FF044B9B68C3F34233034A4F
:102E2000D35CD84008BD00BF00380240645700089A
:102E30000F2303600B4B9A6802F0030242609A680A
:102E400002F0F00282609A6802F4E052C2609B686D
:102E5000DB0803F4E0530361034B1B6803F00F032B
:102E60000B60704700380240003C024030B583B030
:102E70000446036813F0050F0ED1236813F0020F08
:102E800038D1236813F0080F00F09B80227D4E4B51
:102E90001A60002003B030BD4C4B00221A60FDF7D1
:102EA00063FF05464A4B1B6813F0006F06D0FDF721
:102EB0005BFF401B0228F5D90320EBE76368A2689B
:102EC00043EA8213E26843EA0273414AC2F884305B
:102ED0003E4B01221A60FDF747FF05463C4B1B683D
:102EE00013F0006FC9D1FDF73FFF401B0228F5D951
:102EF0000320CFE700230193354B1A6C42F0805238
:102F00001A641B6C03F080530193019B314A1368D0
:102F100043F480731360FDF727FF05462D4B1B68B4
:102F200013F4807F06D1FDF71FFF401B0228F5D95F
:102F30000320AFE7264B1B6F13F4407312D02269B6
:102F400002F440729A420DD0214B1A6F22F4407263
:102F5000214901200860002008601A671B6F13F0E8
:102F6000010F12D1236903F44072B2F5407F1DD0E6
:102F7000174A936823F4F813936015490B6F22697D
:102F8000C2F30B0213430B677BE7FDF7EDFE05462B
:102F90000F4B1B6F13F0020FE4D1FDF7E5FE401B52
:102FA00041F288339842F3D9032073E708498A68CD
:102FB00022F4F81223F0704323F4407313438B6020
:102FC000DBE7002066E700BFE011474268004742A8
:102FD0000038024000700040400E474201282CD1CA
:102FE000184B9B6813F4000303D0012B27D116481C
:102FF0007047144B5B6813F4800F15D0114BD3F856
:10300000843003F03F031148B0FBF3F00D4AD2F8CF
:103010008430C3F3881300FB03F0D2F88430C3F389
:103020000273B0FBF3F07047064BD3F8843003F023
:103030003F030748B0FBF3F0E8E7002070470020AB
:10304000704700BF003802400080BB0000127A00C9
:103050000024F400F8B505460F4616461C463BE032
:103060002CB1FDF781FE069BC01AA04234D32A681A
:10307000536823F0E00353606B68B3F5827F0BD095
:10308000AB6AB3F5005F14D0012385F851300023FB
:1030900085F85030032027E0AB68B3F5004F02D02D
:1030A000B3F5806FECD12A68136823F040031360F6
:1030B000E6E72A68136823F400531B041B0C136013
:1030C0002A68136843F400531360DDE70123B34219
:1030D00009D0B4F1FF3FC3D12B689B6837EA0303E3
:1030E000F4D00023F3E70020F8BD10B582B0044609
:1030F00000920B4600228021FFF7ACFF034610B977
:10310000184602B010BD636D43F0200363650323CE
:10311000F6E700283BD010B504460023836290F800
:103120005130002B2ED0022384F8513022681368CE
:1031300023F0400313606368A2681343E2681343FB
:103140002269134362691343A26902F400721343B4
:10315000E2691343226A1343A16A22680B43136096
:10316000638B03F00403616A22680B435360226897
:10317000D36923F40063D36100206065012384F8E0
:10318000513010BD80F8503002F09EF9CBE701209D
:1031900070472DE9F04184B01E4690F85030012B65
:1031A00000F0C88004460D469046012380F8503058
:1031B000FDF7DAFD074694F85130DBB2012B0AD057
:1031C0000223012284F85120002284F8502018465E
:1031D00004B0BDE8F081002D00F0A480B8F1000F2C
:1031E00000F0A280032384F8513000236365256337
:1031F000A4F83480A4F83680A363A387E3876364CC
:103200002364A368B3F5004F1BD023681A6812F03B
:10321000400F03D11A6842F040021A60E368B3F528
:10322000006F14D063681BB1E38E9BB2012B3ED1BB
:10323000236815F8012B1A73E38E013B9BB2E386DA
:1032400035E02268136843F480431360DDE7636868
:103250001BB1E38E9BB2012B0DD1236835F8022BF5
:10326000DA60E38E013B9BB2E38604E0002E5DD082
:10327000B6F1FF3F0FD1E38E9BB27BB323689A6810
:1032800012F0020FF2D035F8022BDA60E38E013B28
:103290009BB2E386EFE7FDF767FDC01BB042EAD3C0
:1032A00003238EE7002E43D0B6F1FF3F0FD1E38E0C
:1032B0009BB29BB123689A6812F0020FF2D015F806
:1032C000012B1A73E38E013B9BB2E386EFE7FDF718
:1032D0004BFDC01BB042EAD3032372E7009733468D
:1032E000012202212046FFF7B5FE08B1032368E75B
:1032F0003A4631462046FFF7F8FE034618B1202330
:10330000636501235DE7A26832B903922268D16840
:10331000039192680392039A626D002A3FF451AFC1
:1033200001234EE701234CE701234AE7032348E743
:10333000032346E702234AE72DE9F04385B0994687
:103340000C9D90F85030012B00F0108104460F4680
:103350001646012380F85030FDF706FD804694F8AC
:103360005130DBB26268012B15D0B2F5827F0AD0F2
:103370000223012284F85120002284F850201846AC
:1033800005B0BDE8F083A268002A40F0E780042B76
:1033900001D00223EDE7002F00F0E280002E00F0C4
:1033A000E180B9F1000F00F0DF8094F85130DBB21A
:1033B000012B2BD000236365A663A4F83E90A4F8EC
:1033C0003C902763A4F83690A4F834902364636497
:1033D00023681A6812F0400F03D11A6842F04002C5
:1033E0001A60E368B3F5006F14D063681BB1E38E15
:1033F0009BB2012B07D1236817F8012B1A73E38EB8
:10340000013B9BB2E3864FF0010961E0052384F89C
:103410005130CFE763681BB1E38E9BB2012B07D11C
:10342000236837F8022BDA60E38E013B9BB2E38618
:103430004FF0010913E0E38F9BB26BB123689A68E8
:1034400012F0010F08D0DB6826F8023BE38F013B46
:103450009BB2E3874FF00109B5F1FF3F1CD1E38E2A
:103460009BB21BB9E38F9BB2002B55D0B9F1000F73
:10347000E1D0E38E9BB2002BDDD023689A6812F076
:10348000020FD8D037F8022BDA60E38E013B9BB2F3
:10349000E3864FF00009CEE7FDF766FCA0EB0800DD
:1034A000A842DCD3032364E7E38F9BB26BB12368AC
:1034B0009A6812F0010F08D0DB683370E38F013B8C
:1034C0009BB2E38701364FF00109B5F1FF3F1BD1F5
:1034D000E38E9BB213B9E38F9BB2EBB1B9F1000F4E
:1034E000E2D0E38E9BB2002BDED023689A6812F004
:1034F000020FD9D03A781A73E38E013B9BB2E38670
:1035000001374FF00009CFE7FDF72EFCA0EB0800D4
:10351000A842DDD303232CE7CDF800802B460122FF
:1035200002212046FFF796FD08B1032321E742461A
:1035300029462046FFF7D9FD034618B120236365CD
:10354000012316E7A268002A7FF413AF03922268D2
:10355000D168039192680392039A0AE7022308E76D
:10356000012306E7012304E7012302E7022306E71C
:103570002DE9F04182B004460D4617461E464368C9
:10358000B3F5827F19D094F85030012B00F0A2805F
:10359000012384F85030FDF7E7FB804694F8513062
:1035A000DBB2012B15D00220012384F85130002317
:1035B00084F8503002B0BDE8F0818368002BE2D17E
:1035C000042380F85130009613460A46FFF7B4FEF4
:1035D000F0E7002D74D0002F74D0042384F851300C
:1035E00000236365A563A787E7872363A386E38634
:1035F00023646364A368B3F5004F0BD023681A6893
:1036000012F0400F03D11A6842F040021A60E368DA
:103610005BB128E02268136823F480431360EDE770
:10362000002E51D0B6F1FF3F10D1E38F9BB2002B9B
:1036300031D023689A6812F0010FF1D01B7B05F896
:10364000013BE38F013B9BB2E387EEE7FDF78CFB89
:10365000A0EB0800B042E8D30320A5E7002E35D048
:10366000B6F1FF3F0FD1E38F9BB2A3B123689A68F5
:1036700012F0010FF2D0DB6825F8023BE38F013B2B
:103680009BB2E387EFE7FDF76FFBA0EB0800B042CA
:10369000E9D3032088E76368B3F5827F03D0636DC5
:1036A000B3B9002080E7A368B3F5004F02D0B3F5AB
:1036B000806FF4D12268136823F040031360EEE7B3
:1036C000012071E701206FE703206DE703206BE71E
:1036D000012069E702206DE770470268D36843F074
:1036E0000103D3600268136843F0010313600020F4
:1036F0007047704770477047704710B504460368BD
:103700001A6912F0020F11D0DA6812F0020F0DD010
:103710006FF002021A610123037603689B6913F0BC
:10372000030F70D0FFF7E6FF0023237623681A69A2
:1037300012F0040F12D0DA6812F0040F0ED06FF0FE
:1037400004021A610223237623689B6913F4407FE5
:103750005FD02046FFF7CEFF0023237623681A6947
:1037600012F0080F12D0DA6812F0080F0ED06FF0C6
:1037700008021A61042323762368DB6913F0030F20
:103780004ED02046FFF7B6FF0023237623681A6940
:1037900012F0100F12D0DA6812F0100F0ED06FF086
:1037A00010021A61082323762368DB6913F4407F33
:1037B0003DD02046FFF79EFF0023237623681A6939
:1037C00012F0010F03D0DA6812F0010F36D123682E
:1037D0001A6912F0800F03D0DA6812F0800F34D12A
:1037E00023681A6912F0400F03D0DA6812F0400F14
:1037F00032D123681A6912F0200F03D0DA6812F070
:10380000200F30D110BDFFF774FF2046FFF773FF84
:103810008AE72046FFF76DFF2046FFF76CFF9BE726
:103820002046FFF766FF2046FFF765FFACE720461E
:10383000FFF75FFF2046FFF75EFFBDE76FF0010275
:103840001A61204601F00CFCC1E76FF080021A619A
:10385000204600F073F8C3E76FF040021A6120467B
:10386000FFF74AFFC5E76FF020021A61204600F01B
:1038700064F8C7E70368234A90420ED0B0F1804F46
:103880000BD0A2F57C42904207D002F580629042B4
:1038900003D002F58062904203D123F070034A689E
:1038A0001343184A90421AD0B0F1804F17D0A2F5B6
:1038B0007C42904213D002F5806290420FD002F514
:1038C000806290420BD002F59A32904207D002F506
:1038D0008062904203D002F58062904203D123F4CB
:1038E0004073CA68134303608B68C3620B688362CA
:1038F000044B984202D00123436170470B69036374
:10390000F9E700BF00000140A8B110B5044690F8E7
:1039100039305BB1022384F83930211D2068FFF76C
:10392000A9FF012384F83930002010BD80F8383019
:10393000FFF7D2FEEEE7012070477047704784B072
:1039400010B5044603A880E80E00089B012B20D187
:10395000A36B23F48033A363E36823F4840323F08D
:103960004003E360E36823F44013E3600F9B012B03
:103970000AD0204600F080F8069B012B14D00020CE
:10398000BDE8104004B07047E36843F48013E3607F
:10399000EFE7E36843F04003E360204600F06CF893
:1039A0004FF48033A363E7E7A36843F00603A36003
:1039B000A36843F02003A360E1E7836823F00103D9
:1039C00083600020704708B5C36823F0C043C3601C
:1039D000012909D019B9C36843F08043C36032207C
:1039E000FDF7C8F9002008BDC36843F00053C36069
:1039F000F5E70000890141F0200101610023013356
:103A0000054A934205D8026912F0200FF7D1002031
:103A100070470320704700BF400D0300102303616F
:103A200000230133054A934205D8026912F0100FB2
:103A3000F7D1002070470320704700BF400D0300FE
:103A400003329208002393420CD210B400F5805444
:103A5000246841F8044B01339342F7D308465DF8DC
:103A6000044B7047084670474269806910407047B0
:103A7000406900F001007047002301330C4A934273
:103A800011D80269002AF8DA036943F001030361DF
:103A900000230133064A934207D8026912F0010F4E
:103AA000F7D100207047032070470320704700BF04
:103AB000400D030084B038B5044605A880E80E0028
:103AC00025460023C4F8003EA36B23F48023A363A0
:103AD000A36B23F40023A363A36B43F40013A3633A
:103AE000079B032B0ED0D4F8003423F00403C4F852
:103AF000003410212046FFF77DFF2046FFF78EFFA0
:103B0000002213E0B4F1A04FEDD0D4F8003443F01C
:103B10000403C4F80034ECE705EB42134FF0FF3127
:103B2000C3F808150021C3F80C150132069B934217
:103B3000F2D80121204600F053F8C820FDF71AF909
:103B40000023A3614FF0FF336361B4F1A04F17D09E
:103B50004FF40073636203F18073A3620D4BC4F8EA
:103B60000031089B1BB9A36943F01003A361A2694C
:103B7000094B1343A3610020BDE8384004B07047EF
:103B80008023636203F5C003A362044BC4F80031D1
:103B9000E7E700BF0003E000080020A3E0004000CA
:103BA00010B400F58064D0F8003423F00303C0F8AB
:103BB0000034D0F8003401F003021343C0F800349D
:103BC000012905D0022907D000205DF8044B704779
:103BD0004BF680336360F7E741F270736360F3E79D
:103BE00082B0D0F840340193019B23F02E0301935F
:103BF000019B13F4805F01D101290CD0019B13F4C8
:103C0000805F05D021B9019B23F48053C0F8403474
:103C1000002002B07047019B43F48053C0F8403449
:103C2000ECE780B483B000AF78607B6803F5806315
:103C30005B699BB218460C37BD465DF8047B704744
:103C400080B485B000AF78600B46FB700023FB604A
:103C5000FB785A017B68134403F5A0631B689B0C37
:103C600003F00303002B0BD0FB785A017B6813444D
:103C700003F5A0631B689B0C03F00303022B5CD1CC
:103C8000FB785A017B68134403F5A0631B68FA783C
:103C900051017A680A4402F5A06243F08043136040
:103CA0007B68DB6A03F47F03002B33D1FB785A0176
:103CB0007B68134403F5A0631B68FA7851017A68A6
:103CC0000A4402F5A06223F000431360FB785A0116
:103CD0007B68134403F5A0631B68FA7851017A6886
:103CE0000A4402F5A06243F000431360FB6801330D
:103CF000FB60FB68B3F57A7F1DD8FB785A017B68BF
:103D0000134403F5A0631B6803F00043B3F1004FB5
:103D1000ECD06FE0FB785A017B68134403F5A06395
:103D20001B68FA7851017A680A4402F5A06243F0F0
:103D3000004313605EE000BF5CE0FB785A017B68E3
:103D4000134403F5A0631B68FA7851017A680A44AA
:103D500002F5A06243F0804313607B6803F5806343
:103D60001B699BB2002B33D1FB785A017B6813444B
:103D700003F5A0631B68FA7851017A680A4402F5DA
:103D8000A06223F000431360FB785A017B68134460
:103D900003F5A0631B68FA7851017A680A4402F5BA
:103DA000A06243F000431360FB680133FB60FB68D3
:103DB000B3F57A7F1DD8FB785A017B68134403F56D
:103DC000A0631B6803F00043B3F1004FECD011E097
:103DD000FB785A017B68134403F5A0631B68FA78EB
:103DE00051017A680A4402F5A06243F0004313606F
:103DF00000E000BF002318461437BD465DF8047B81
:103E00007047842801D0033070470020704708B500
:103E100000F0C8F9002008BDF0B585B00F46446831
:103E200005680669B0F90800FFF7EBFF03AB0193E3
:103E300000903B46B2B22946204600F081F90128A5
:103E400002D1039805B0F0BD0020FBE708B503469A
:103E500000B90123184600F0E7FA002008BD08B5B4
:103E600000F08EFB012801D000F06CFC08BD00F1D1
:103E7000080343604FF0FF328260C3600361002398
:103E80000360704700230361704743684B609A6882
:103E90008A609A6851609960086103680133036021
:103EA000704730B40D68B5F1FF3F02D000F1080251
:103EB00002E0026904E01A4653681C68AC42FAD971
:103EC00053684B6099608A605160086103680133F0
:103ED000036030BC70470369426881689160826802
:103EE000416851605A68824205D000220261186818
:103EF00001381860704782685A60F6E7074B9B6A82
:103F00001B6833B1054B9A6AD268D2685268DA628C
:103F10007047024B4FF0FF32DA6270472C000020EE
:103F200010B50446006B00F077FD204600F074FDEC
:103F300010BD2DE9F04780469946089D099F0A9CCF
:103F4000266B02F18042013A06EB820626F0070654
:103F500000230F2B07D8C85CE21882F83400CA5C33
:103F60000AB10133F5E7002384F84330062D00D968
:103F70000625E56265644FF0000AC4F848A0201DDC
:103F8000FFF780FF04F11800FFF77CFF2461C5F103
:103F90000705A5616462C4F84CA084F850A04A46A5
:103FA0004146304600F030FB206007B13C60BDE880
:103FB000F087000070B5002407E004EB8402930052
:103FC00010481844FFF753FF0134062CF5D90E4C66
:103FD00004F1BC063046FFF74AFF04F1D00528463D
:103FE000FFF745FF04F11400FFF741FF04F1E4007F
:103FF000FFF73DFF2046FFF73AFFA662C4F8F850EE
:1040000070BD00BF5C0000202C00002038B50546C4
:1040100000F028FB264BD3F8FC200132C3F8FC202B
:10402000D3F8003173B1224BD3F804318BB9204B54
:10403000D3F80031DA6AEB6A9A420AD81C4BC3F80B
:10404000005106E01A4BC3F80051D3F8FC30012BA5
:104050002AD0174CD4F808310133C4F80831EB6A80
:1040600001229A40D4F80C110A43C4F80C2104F13F
:10407000300003EB83039A00291D1044FFF705FF6E
:1040800000F012FBD4F804316BB1D4F80031DA6AD5
:10409000EB6A9A4207D2074B4FF080521A60BFF387
:1040A0004F8FBFF36F8F38BDFFF784FFD1E700BF9D
:1040B0002C00002004ED00E070B504460E461F4BB6
:1040C000D3F81051D3F800010430FFF704FF60B9B2
:1040D0001A4BD3F80021D16A012202FA01F1D3F878
:1040E0000C2122EA0102C3F80C21B4F1FF3F12D0E7
:1040F0002C44124BD3F800315C60A54214D80F4D0C
:10410000A86AD5F800110431FFF7CBFEEB6AA34291
:1041100012D9EC6210E0002EEAD00848D0F8001165
:104120000431FFF7B2FE07E0044BD3F8F800D3F8F0
:1041300000110431FFF7B5FE70BD00BF2C00002058
:104140002DE9F04385B0074688461546994690000C
:1041500000F0E8FBF8B10646542000F0E3FB04460B
:10416000A8B10663D4B10023039302940D9B01937D
:104170000C9B00934B462A4641463846FFF7D9FE32
:104180002046FFF743FF012005B0BDE8F08330462D
:1041900000F042FCE6E74FF0FF30F5E74FF0FF306C
:1041A000F2E7000000B583B0174B019300230093A2
:1041B000802216491648FFF7C3FF012805D0B0F149
:1041C000FF3F17D003B05DF804FB4FF0500383F3BB
:1041D0001188BFF36F8FBFF34F8F0E4B4FF0FF323D
:1041E000DA620122C3F804210022C3F8102100F092
:1041F000D5FAE7E74FF0500383F31188BFF36F8FD1
:10420000BFF34F8FFEE700BF480100206C57000846
:10421000C94400082C000020034AD2F818310133A9
:10422000C2F81831704700BF2C0000202DE9F04182
:10423000404BD3F81831002B6CD13E4BD3F81051C2
:104240000135C3F81051CDB99B6A1B6843B14FF0DB
:10425000500383F31188BFF36F8FBFF34F8FFEE7D7
:10426000344B9A6AD3F8F8109962C3F8F820D3F85F
:1042700020210132C3F82021FFF740FE2D4BDB6ADD
:10428000AB423DD900242B4AD2F80031DB6A03EB64
:10429000830399000A44136B012B42D9012440E0A7
:1042A0000124244B9B6A1B6863B3224B9B6ADB6827
:1042B000DE6873689D422AD306F104084046FFF782
:1042C0000AFEB36A1BB106F11800FFF704FEF36A99
:1042D00001229A40174FD7F80C110A43C7F80C2156
:1042E00007F1300003EB83039A0041461044FFF7C7
:1042F000CCFDF26AD7F80031DB6A9A42D0D2D0E71F
:104300000024CEE70B4B4FF0FF32DA62BBE7094ADD
:10431000D362B8E7074AD2F824310133C2F8243116
:104320000024044BD3F8283103B101242046BDE812
:10433000F08100BF2C000020394BD3F8183143B96D
:104340004FF0500383F31188BFF36F8FBFF34F8F8C
:10435000FEE770B500F086F9314BD3F81821013A29
:10436000C3F81821D3F81831002B54D12C4BD3F8B3
:10437000FC3023B9002400F097F9204670BD0024DA
:10438000274B5B692BB3264D2B6ADC6804F11800C0
:10439000FFF7A1FD261D3046FFF79DFDE36A0122D0
:1043A0009A40D5F80C110A43C5F80C2105F13000EC
:1043B00003EB83039A0031461044FFF766FDE26A7F
:1043C000D5F80031DB6A9A42DAD30122C5F82821F8
:1043D000D6E70CB1FFF792FD114BD3F8244164B13D
:1043E000FFF724FF18B10E4B0122C3F82821013C2E
:1043F000F6D10B4B0022C3F82421094BD3F8283106
:104400005BB1084B4FF080521A60BFF34F8FBFF380
:104410006F8F0124AFE70024ADE70024ABE700BFB6
:104420002C00002004ED00E010B5B0B104460F4BA5
:10443000D3F8183143B14FF0500383F31188BFF321
:104440006F8FBFF34F8FFEE7FFF7E6FE0021204698
:10445000FFF732FEFFF770FF38B9054B4FF080527F
:104460001A60BFF34F8FBFF36F8F10BD2C00002079
:1044700004ED00E038B5134BD3F814310BB3FFF75C
:10448000CBFE104BD3F8E440FFF756FF002CF2D0E0
:1044900000F0E8F80B4CD4F8F030DD68281DFFF789
:1044A0001AFDD4F8FC30013BC4F8FC30D4F81431C8
:1044B000013BC4F8143100F0F7F82846FFF730FD4F
:1044C000D9E738BD2C00002008B5FFF7D3FF064B15
:1044D0001B6B012BF9D9054B4FF080521A60BFF3CB
:1044E0004F8FBFF36F8FF0E72C00002004ED00E04A
:1044F000224BD3F8183123B1204B0122C3F82821D5
:1045000070471E4A0023C2F82831D2F80C31B3FAA2
:1045100083F3DBB2C3F11F0303EB830081000A4482
:10452000126B42B94FF0500383F31188BFF36F8FC2
:10453000BFF34F8FFEE710B4104A9900CC18A000CB
:104540001044446B64684463303219448800083076
:10455000024494420BD0094903EB83039A000A44B6
:10456000536BDB68C1F800315DF8044B704761683C
:104570000248142202FB03025163ECE72C000020E6
:10458000064BD3F804313BB1044BD3F818310BB1CF
:104590000020704702207047012070472C00002047
:1045A0000B4B1B68B3F1FF3F08D04FF0500383F370
:1045B0001188BFF36F8FBFF34F8FFEE74FF05003AB
:1045C00083F31188BFF36F8FBFF34F8FFEE700BFF8
:1045D0000800002006480068006880F3088862B67A
:1045E00061B6BFF34F8FBFF36F8F00DF00BF0000D6
:1045F00008ED00E0DFF80C00016841F47001016093
:104600007047000088ED00E04FF0807340F8043CF4
:1046100021F0010140F8081C054B40F80C3C40F823
:10462000202C6FF0020340F8243C4438704700BF50
:10463000A14500080000000000000000000000008C
:10464000074B19680868B0E8F04F80F30988BFF39A
:104650006F8F4FF0000080F311887047AFF3008038
:104660002C0100204FF0500383F31188BFF36F8FAC
:10467000BFF34F8F0A4A136801331360012B00D038
:104680007047084B1B6813F0FF0FF9D04FF0500331
:1046900083F31188BFF36F8FBFF34F8FFEE700BF27
:1046A0000800002004ED00E0094B1B6843B94FF0FF
:1046B000500383F31188BFF36F8FBFF34F8FFEE773
:1046C000013B034A13600BB983F31188704700BFA5
:1046D00008000020000000000000000000000000B2
:1046E000EFF30980BFF36F8F154B1A681EF0100FA0
:1046F00008BF20ED108A20E9F04F10604DF8043D0E
:104700004FF0500080F31188BFF34F8FBFF36F8FCE
:10471000FFF7EEFE4FF0000080F3118808BC196827
:104720000868B0E8F04F1EF0100F08BFB0EC108A18
:1047300080F30988BFF36F8F704700BFAFF300802D
:104740002C01002008B54FF0500383F31188BFF30C
:104750006F8FBFF34F8FFFF769FD18B1034B4FF019
:1047600080521A60002383F3118808BD04ED00E035
:10477000064B1B68064AA2FB03239B09013B054A23
:104780001360054B07221A60704700BF0C00002021
:10479000D34D621014E000E010E000E0314B1A68E5
:1047A000314B9A420DD02F4B1A68304B9A4211D19F
:1047B0004FF0500383F31188BFF36F8FBFF34F8F18
:1047C000FEE74FF0500383F31188BFF36F8FBFF301
:1047D0004F8FFEE700B583B0254B1A78D2B2019215
:1047E000FF221A701B78DBB28DF803309DF803307E
:1047F00003F050031F4A1370072353609DF80330E2
:1048000013F0800F0AD01B4A5368013B53609DF898
:1048100003305B00DBB28DF80330EFE7154A5368D5
:104820001B0203F4E0635360019BDBB2104A137078
:10483000114B1A6842F470021A601A6842F0704212
:104840001A60FFF795FF0D4B00221A60FFF7D2FEAA
:104850000B4A136843F040431360FFF7BBFEFFF7BA
:104860009FFE00BF00ED00E071C20F4170C20F411A
:1048700000E400E05801002020ED00E008000020E6
:1048800034EF00E0104A12F0070F1AD0D11D21F0CA
:104890000701C1F5705313440A460C490A60002011
:1048A00048601344083B23F007038B60586018608E
:1048B000981A50601360C86008614FF000434B6164
:1048C00070474FF47053E8E7780100206001002042
:1048D00010B4134B1A6882421BD359685C18844287
:1048E00003D1406801445960184641684418A24207
:1048F00013D10B4CA468A2420DD052681144416000
:104900001A6812680260984200D018605DF8044B83
:1049100070471346DEE70460F5E70260F3E700BF87
:104920006001002070B50446FFF776FC394B9B68A8
:10493000BBB1384B5B691C4262D1ACB1083414F096
:10494000070F11D024F00704083404F007035BB10B
:104950004FF0500383F31188BFF36F8FBFF34F8F76
:10496000FEE7FFF78FFFE4E7002C4BD0294B1B69D4
:10497000A34249D3274B1D6801E02B4615466A68C0
:10498000A24202D22A68002AF7D1224A9268AA4299
:104990003CD01E6808362A681A606B681B1B102BF7
:1049A00010D9281910F0070F08D04FF0500383F3E7
:1049B0001188BFF36F8FBFF34F8FFEE743606C60CA
:1049C000FFF786FF6968134A13695B1A1361D2689F
:1049D000934201D20F4AD3600E4B5B690B436B606D
:1049E00000232B60FFF7A8FC16F0070F10D04FF044
:1049F000500383F31188BFF36F8FBFF34F8FFEE730
:104A00000026EFE70026EDE70026EBE70026E9E7C2
:104A1000304670BD6001002080B338B50446A0F177
:104A2000080550F8042C164949690A4208D14FF08C
:104A3000500383F31188BFF36F8FBFF34F8FFEE7EF
:104A400050F8080C40B14FF0500383F31188BFF3C6
:104A50006F8FBFF34F8FFEE722EA010244F8042C68
:104A6000FFF7DAFB54F8041C054A13690B44136181
:104A70002846FFF72DFFFFF75FFC38BD704700BFEA
:104A8000600100200000000070B5A824002508E0A7
:104A9000012208212E48FCF7CBFA0135ADB20134D2
:104AA000E4B2AD2C16D82B4E3470002208212848D1
:104AB000FCF7BEFA3223012231462748FEF769FB94
:104AC0000028E5D132230122244929442248FEF757
:104AD0004FFDDDE7214B1A78587840EA022000B2FA
:104AE0001F4A10809978DD7845EA012530352DB2CE
:104AF000558019795C7944EA0124163C24B29480EB
:104B0000FBF7C0FC10A3D3E90023FBF725FDFBF75F
:104B100035FF144B18602846FBF7B4FC0AA3D3E911
:104B20000023FBF719FDFBF729FF0F4B1860204608
:104B3000FBF7A8FC04A3D3E90023FBF70DFDFBF76B
:104B40001DFF0A4B186070BDFA007D803E40AF3FEC
:104B500000100240204100201C3E00208C3D00201F
:104B6000943D0020003E0020F43D0020883D0020C0
:104B70002DE9F04F8DB000240194574B1A6B42F091
:104B800010021A631A6B02F010020192019A029449
:104B90001A6B42F004021A631A6B02F004020292CA
:104BA000029A03941A6B42F080021A631A6B02F0A5
:104BB00080020392039A04941A6B42F001021A6372
:104BC0001A6B02F001020492049A05941A6B42F0E7
:104BD00002021A631A6B02F002020592059A069409
:104BE0001A6B42F008021A631B6B03F0080306936A
:104BF000069B3A4E224608213046FCF719FADFF8A8
:104C0000E8B0012211465846FCF712FADFF8DC80C2
:104C100022464FF210014046FCF70AFA162307938A
:104C20002F4B0893099407A93046FCF72FF9082762
:104C300007970125089509940A9407A93046FCF7BF
:104C400025F94FF02009CDF81C90DFF8A4A0CDF88D
:104C500020A0099407A93046FCF718F90795089594
:104C600009940A9407A95846FCF710F90795CDF85E
:104C700020A0099407A91B48FCF708F94FF210037C
:104C80000793089509940A9407A94046FCF7FEF893
:104C9000CDF81C900894099407A94046FCF7F6F853
:104CA000224605210720FCF78BF80720FCF7BCF80B
:104CB000224605213846FCF783F83846FCF7B4F85D
:104CC000224605210A20FCF77BF80A20FCF7ACF805
:104CD0000DB0BDE8F08F00BF003802400010024068
:104CE000000011100000024000080240000C0240C9
:104CF0000000121008B542F21070FFF7A7F8FAE7AB
:104D000008B5034B02225A61FFF7BEFE08BD00BF83
:104D1000003C0140014B10225A617047003C0140A9
:104D200038B50A4C21706070094D002208212846D0
:104D3000FCF77EF93223022221460648FEF729FAC3
:104D4000012208212846FCF773F938BD20410020D4
:104D5000001002401C3E002038B50278417883786C
:104D6000C5780A4313430279417984790A4314438D
:104D7000202145EA0300FFF7D3FF22210820FFF797
:104D8000CFFF23212046FFF7CBFF38BD00B583B00E
:104D900008238DF80030C0238DF8013007238DF8EB
:104DA000023030238DF8033000238DF80430402387
:104DB0008DF8053020238DF806306846FFF7CCFFCC
:104DC000FFF762FE03B05DF804FB000000B583B09E
:104DD000054A117050703221009102230348FCF7FC
:104DE000CFFF03B05DF804FBF03D00209C3D0020A8
:104DF00030B587B006AA02F8090D0A4D3224009496
:104E0000012321462846FCF7BBFF009401230DF146
:104E1000170221462846FDF775F89DF8170007B0E0
:104E200030BD00BF9C3D002038B52824002508E097
:104E30002046FFF7DDFF2E4B58550135EDB201340A
:104E4000E4B22D2CF4D92A4B1A78587840EA022083
:104E5000000910F4006F03D06FEA00506FEA1050A1
:104E6000244B1880224B9A78DD7845EA02252D09DB
:104E700015F4006F03D06FEA05556FEA15551D4B09
:104E80005D801B4B1A795C7944EA0224240914F4EE
:104E9000006F03D06FEA04546FEA1454154B9C80E2
:104EA000FBF7F0FA10A3D3E90023FBF755FBFBF760
:104EB00065FD114B18602846FBF7E4FA0AA3D3E915
:104EC0000023FBF749FBFBF759FD0C4B186020460C
:104ED000FBF7D8FA04A3D3E90023FBF73DFBFBF76C
:104EE0004DFD074B186038BDFCA9F1D24D62703FF3
:104EF000043E002018410020F83D0020FC3D002029
:104F0000843D002000B583B0064A117050703223F2
:104F1000009302233C210448FCF732FF03B05DF804
:104F200004FB00BFF03D00209C3D002030B587B061
:104F300006AA02F8090D0A4C3225009501233C21EE
:104F40002046FCF71DFF009501230DF117023C21BF
:104F50002046FCF7D7FF9DF8170007B030BD00BF13
:104F60009C3D002038B50324002508E02046FFF7CB
:104F7000DDFF194B58550135EDB20134E4B2082C70
:104F8000F4D915484378017841EA032109B2134C5A
:104F90002180C378827842EA032212B26280457986
:104FA000037943EA05231BB2A38007EE901AF8EEBB
:104FB000E77A0B49C1ED007A07EE902AF8EEE77A1E
:104FC000084AC2ED007A07EE903AF8EEE77A064B0F
:104FD000C3ED007A38BD00BF143E00201041002010
:104FE0000C4100207C3D00200C3E002008B5064B03
:104FF00004225A61FFF718FFFFF7B4FF034A138832
:1050000001339BB2138008BD003C0140103E0020DC
:1050100008B520219720FFF7D9FE22211020FFF7A5
:10502000D5FE23216820FFF7D1FE00219C20FFF749
:1050300069FF01218020FFF765FF02210020FFF7B3
:1050400061FFFFF7F1FEFFF78DFF08BD08B5FFF721
:10505000DFFF08BD08B5FFF7F9FFFFF797FE08BDB2
:1050600008B50268034B9A4200D008BDFBF770FEFA
:10507000FBE700BF00480140FEE7000008B50C4810
:105080000C4B03600C4B436000238360C3604FF400
:105090008042026143618361C3610362FCF7E2FD08
:1050A00000B908BD40F232210448FFF7E5FF00BF18
:1050B0009C3D002000540040A08601007457000869
:1050C00008B50F480F4B03604FF482734360002311
:1050D0008360C360036143614FF4007282611022F8
:1050E000C2610362436283620A23C362FEF711F85E
:1050F00000B908BD40F272210348FFF7BDFF00BFB1
:105100001C3E0020003001407457000808B50B48D1
:105110004FF0A0430360082383600323C360002390
:10512000036102228261C361FBF7C6FF00B908BDBB
:1051300040F283210248FFF79FFF00BF743E00202A
:105140007457000808B50D480D4B03604FF4007309
:10515000436000238360C36003614FF47A5242616D
:105160008361C36101230362FDF77CF800B908BDC8
:1051700040F246210348FFF77FFF00BF2441002093
:10518000003800407457000808B50C480C4B036009
:105190004FF40072426000238360C36002614FF4E9
:1051A000FA5242618361C3610362FDF75BF800B9A3
:1051B00008BD40F25A210348FFF75EFF6C41002012
:1051C000003C00407457000800B59BB000210191DD
:1051D000334B1A6C42F080521A641B6C03F08053FC
:1051E0000193019B02912F4B1A6842F440421A60CE
:1051F0001B6803F440430293029B01230E934FF478
:1052000080330F93022314934FF4800315930423E8
:105210001693C02217921893082319930EA8FDF72E
:10522000FDFA70BB0F23099302230A9300230B930B
:105230004FF4A0520C920D93032109A8FDF726FD0F
:1052400020BB01230393C823059305230493022362
:10525000069303A8FDF70AFEE8B9FDF7C3FD124B5C
:10526000A3FB00308009FBF7EBFD0420FBF7FEFDFC
:1052700000220F214FF0FF30FBF7A2FD1BB05DF8BD
:1052800004FB40F2FD110948FFF7F6FE40F20B2146
:105290000648FFF7F1FE4FF405710448FFF7ECFEF6
:1052A0000038024000700040D34D6210745700086F
:1052B00000B587B0FBF732FDFFF786FFFFF758FC1C
:1052C000FFF7DCFEFFF7FCFEFFF720FFFFF73AFFDA
:1052D000FFF75AFF4FF4FA70FBF74CFDFFF7BAFEE9
:1052E00001AC074D0FCD0FC42B682360002101A82E
:1052F000FEF792FD034B1860FEF789FDFEE700BF45
:1053000040570008803D002010B582B00024009472
:10531000214B5A6C42F480425A645A6C02F4804227
:105320000092009A01941A6C42F080521A641B6C2D
:1053300003F080530193019B0320FBF72FFD2246CE
:1053400021466FF00B00FBF73BFD224621466FF034
:105350000A00FBF735FD224621466FF00900FBF7F6
:105360002FFD224621466FF00400FBF729FD22465F
:1053700021466FF00300FBF723FD22460F216FF05B
:105380000100FBF71DFD22460F214FF0FF30FBF718
:1053900017FD02B010BD00BF003802400268114B7B
:1053A0009A4200D0704710B586B04FF41073019345
:1053B00012230293012303930024049404230593EE
:1053C0000DEB03010848FBF761FD0094074B1A6CD5
:1053D00042F400121A641B6C03F400130093009B48
:1053E00006B010BD005400400004024000380240E6
:1053F000F0B589B003682E4A934204D02D4A9342F7
:1054000031D009B0F0BD002401942B4B1A6C42F44A
:1054100080421A641B6C03F480430193019B0423B4
:105420000393022504950594069406230793234FBE
:1054300003A93846FBF72AFD082303930495059436
:1054400006940526079603A93846FBF71FFD4FF47F
:10545000A0530393049505940694079603A918484E
:10546000FBF714FDCDE700240294134B1A6C42F4B1
:1054700000421A641B6C03F400430293029B102346
:10548000039302260496059406940625079503A91E
:105490000C48FBF7FBFC4FF4A453039304960594CC
:1054A0000694079503A90548FBF7F0FCA9E700BFA0
:1054B00000380040003C0040003802400008024034
:1054C00000040240000002400268114B9A4200D0E2
:1054D000704700B587B00021009103F584335A6C02
:1054E00042F480525A645B6C03F480530093009B37
:1054F000E0230193022302930391032304930523E2
:10550000059301A90348FBF7C1FC07B05DF804FB54
:1055100000300140000002400368B3F1A04F00D00A
:10552000704730B587B04FF40073019300240294A4
:105530000394164D01A92846FBF7A8FC4FF4E0534D
:105540000193022302930394032304930A230593F4
:1055500001A92846FBF79AFC0D4B5A6B42F08002DA
:105560005A6300945A6C42F480425A645B6C03F4B0
:1055700080430093009B224605214320FBF720FC3B
:105580004320FBF751FC07B030BD00BF00000240D4
:105590000038024010B588B0002201461A20FBF7FF
:1055A0000FFC1A20FBF740FC00240194134B5A6CAB
:1055B00042F480225A645B6C03F480230193019BC4
:1055C00002A903A8FDF734FCFDF722FC0C4BA3FB5A
:1055D00000239B0C013B0B480B4A026040F2E73270
:1055E000C260436004618460FEF78EF910B101204F
:1055F00008B010BD0348FEF770F8F9E70038024024
:1056000083DE1B43B4410020004801407047FEE7A1
:10561000FEE7FEE7FEE7704708B5FEF720FC08BD91
:1056200008B50248FEF769F808BD00BFB441002084
:1056300008B50248FCF779F808BD00BF743E0020A9
:105640000F49D1F8883043F47003C1F888300D4B0E
:105650001A6842F001021A60002098601A6822F06D
:10566000847222F480321A60074A5A601A6822F45F
:1056700080221A60D8604FF000638B60704700BFD3
:1056800000ED00E00038024010300024DFF834D094
:10569000002103E00C4B5B58435004310B480C4B8A
:1056A00042189A42F6D30B4A02E0002342F8043B28
:1056B000094B9A42F9D3FFF7C3FF00F011F8FFF747
:1056C000F7FD704700000220A057000800000020EE
:1056D0001000002010000020F0410020FEE7000034
:1056E00070B50D4E0D4CA41BA4100025A54209D188
:1056F0000B4E0C4C00F018F8A41BA4100025A5427A
:1057000005D170BD56F8253098470135EEE756F8BB
:10571000253098470135F2E7985700089857000858
:10572000985700089C570008F8B500BFF8BC08BCA3
:105730009E467047F8B500BFF8BC08BC9E4670474F
:1057400084570008F54C000800000000000000002D
:1057500080000000000000000000000001020304BF
:1057600006070809000000000102030449444C45F3
:10577000000000002E2E2F5372632F6D61696E2E74
:105780006300000064656661756C745461736B003E
:08579000BCB2FF7F0100000024
:04579800C50100083F
:04579C00A10100085F
:1057A0000100000010000000AAAAAAAA0024F40028
:040000050800568D0C
:00000001FF
